{
	"task01/integer-to-roman.sol": {
		"IntegerToRoman": {
			"abi": [
				{
					"inputs": [
						{
							"internalType": "uint256",
							"name": "num",
							"type": "uint256"
						}
					],
					"name": "intToRoman",
					"outputs": [
						{
							"internalType": "string",
							"name": "",
							"type": "string"
						}
					],
					"stateMutability": "pure",
					"type": "function"
				}
			],
			"devdoc": {
				"kind": "dev",
				"methods": {},
				"version": 1
			},
			"evm": {
				"assembly": "    /* \"task01/integer-to-roman.sol\":60:1054  contract IntegerToRoman {... */\n  mstore(0x40, 0x80)\n  callvalue\n  dup1\n  iszero\n  tag_1\n  jumpi\n  revert(0x00, 0x00)\ntag_1:\n  pop\n  dataSize(sub_0)\n  dup1\n  dataOffset(sub_0)\n  0x00\n  codecopy\n  0x00\n  return\nstop\n\nsub_0: assembly {\n        /* \"task01/integer-to-roman.sol\":60:1054  contract IntegerToRoman {... */\n      mstore(0x40, 0x80)\n      callvalue\n      dup1\n      iszero\n      tag_1\n      jumpi\n      revert(0x00, 0x00)\n    tag_1:\n      pop\n      jumpi(tag_2, lt(calldatasize, 0x04))\n      shr(0xe0, calldataload(0x00))\n      dup1\n      0x0cbc513a\n      eq\n      tag_3\n      jumpi\n    tag_2:\n      revert(0x00, 0x00)\n        /* \"task01/integer-to-roman.sol\":93:1049  function intToRoman(uint256 num) public pure returns (string memory){... */\n    tag_3:\n      tag_4\n      0x04\n      dup1\n      calldatasize\n      sub\n      dup2\n      add\n      swap1\n      tag_5\n      swap2\n      swap1\n      tag_6\n      jump\t// in\n    tag_5:\n      tag_7\n      jump\t// in\n    tag_4:\n      mload(0x40)\n      tag_8\n      swap2\n      swap1\n      tag_9\n      jump\t// in\n    tag_8:\n      mload(0x40)\n      dup1\n      swap2\n      sub\n      swap1\n      return\n    tag_7:\n        /* \"task01/integer-to-roman.sol\":147:160  string memory */\n      0x60\n        /* \"task01/integer-to-roman.sol\":187:188  0 */\n      0x00\n        /* \"task01/integer-to-roman.sol\":182:185  num */\n      dup3\n        /* \"task01/integer-to-roman.sol\":182:188  num >0 */\n      gt\n        /* \"task01/integer-to-roman.sol\":182:202  num >0 && num <= 399 */\n      dup1\n      iszero\n      tag_11\n      jumpi\n      pop\n        /* \"task01/integer-to-roman.sol\":199:202  399 */\n      0x018f\n        /* \"task01/integer-to-roman.sol\":192:195  num */\n      dup3\n        /* \"task01/integer-to-roman.sol\":192:202  num <= 399 */\n      gt\n      iszero\n        /* \"task01/integer-to-roman.sol\":182:202  num >0 && num <= 399 */\n    tag_11:\n        /* \"task01/integer-to-roman.sol\":174:216  require(num >0 && num <= 399, \"out range\") */\n      tag_12\n      jumpi\n      mload(0x40)\n      0x08c379a000000000000000000000000000000000000000000000000000000000\n      dup2\n      mstore\n      0x04\n      add\n      tag_13\n      swap1\n      tag_14\n      jump\t// in\n    tag_13:\n      mload(0x40)\n      dup1\n      swap2\n      sub\n      swap1\n      revert\n    tag_12:\n        /* \"task01/integer-to-roman.sol\":265:290  uint256[13] memory values */\n      0x00\n        /* \"task01/integer-to-roman.sol\":265:536  uint256[13] memory values = [... */\n      mload(0x40)\n      dup1\n      0x01a0\n      add\n      0x40\n      mstore\n      dup1\n        /* \"task01/integer-to-roman.sol\":316:320  1000 */\n      0x03e8\n        /* \"task01/integer-to-roman.sol\":265:536  uint256[13] memory values = [... */\n      dup2\n      mstore\n      0x20\n      add\n        /* \"task01/integer-to-roman.sol\":331:334  900 */\n      0x0384\n        /* \"task01/integer-to-roman.sol\":265:536  uint256[13] memory values = [... */\n      dup2\n      mstore\n      0x20\n      add\n        /* \"task01/integer-to-roman.sol\":345:348  500 */\n      0x01f4\n        /* \"task01/integer-to-roman.sol\":265:536  uint256[13] memory values = [... */\n      dup2\n      mstore\n      0x20\n      add\n        /* \"task01/integer-to-roman.sol\":359:362  400 */\n      0x0190\n        /* \"task01/integer-to-roman.sol\":265:536  uint256[13] memory values = [... */\n      dup2\n      mstore\n      0x20\n      add\n        /* \"task01/integer-to-roman.sol\":386:389  100 */\n      0x64\n        /* \"task01/integer-to-roman.sol\":265:536  uint256[13] memory values = [... */\n      dup2\n      mstore\n      0x20\n      add\n        /* \"task01/integer-to-roman.sol\":401:403  90 */\n      0x5a\n        /* \"task01/integer-to-roman.sol\":265:536  uint256[13] memory values = [... */\n      dup2\n      mstore\n      0x20\n      add\n        /* \"task01/integer-to-roman.sol\":415:417  50 */\n      0x32\n        /* \"task01/integer-to-roman.sol\":265:536  uint256[13] memory values = [... */\n      dup2\n      mstore\n      0x20\n      add\n        /* \"task01/integer-to-roman.sol\":429:431  40 */\n      0x28\n        /* \"task01/integer-to-roman.sol\":265:536  uint256[13] memory values = [... */\n      dup2\n      mstore\n      0x20\n      add\n        /* \"task01/integer-to-roman.sol\":455:457  10 */\n      0x0a\n        /* \"task01/integer-to-roman.sol\":265:536  uint256[13] memory values = [... */\n      dup2\n      mstore\n      0x20\n      add\n        /* \"task01/integer-to-roman.sol\":470:471  9 */\n      0x09\n        /* \"task01/integer-to-roman.sol\":265:536  uint256[13] memory values = [... */\n      dup2\n      mstore\n      0x20\n      add\n        /* \"task01/integer-to-roman.sol\":484:485  5 */\n      0x05\n        /* \"task01/integer-to-roman.sol\":265:536  uint256[13] memory values = [... */\n      dup2\n      mstore\n      0x20\n      add\n        /* \"task01/integer-to-roman.sol\":498:499  4 */\n      0x04\n        /* \"task01/integer-to-roman.sol\":265:536  uint256[13] memory values = [... */\n      dup2\n      mstore\n      0x20\n      add\n        /* \"task01/integer-to-roman.sol\":523:524  1 */\n      0x01\n        /* \"task01/integer-to-roman.sol\":265:536  uint256[13] memory values = [... */\n      dup2\n      mstore\n      pop\n      swap1\n      pop\n        /* \"task01/integer-to-roman.sol\":547:572  string[13] memory symbols */\n      0x00\n        /* \"task01/integer-to-roman.sol\":547:709  string[13] memory symbols = [... */\n      mload(0x40)\n      dup1\n      0x01a0\n      add\n      0x40\n      mstore\n      dup1\n      mload(0x40)\n      dup1\n      0x40\n      add\n      0x40\n      mstore\n      dup1\n      0x01\n      dup2\n      mstore\n      0x20\n      add\n      0x4d00000000000000000000000000000000000000000000000000000000000000\n      dup2\n      mstore\n      pop\n      dup2\n      mstore\n      0x20\n      add\n      mload(0x40)\n      dup1\n      0x40\n      add\n      0x40\n      mstore\n      dup1\n      0x02\n      dup2\n      mstore\n      0x20\n      add\n      0x434d000000000000000000000000000000000000000000000000000000000000\n      dup2\n      mstore\n      pop\n      dup2\n      mstore\n      0x20\n      add\n      mload(0x40)\n      dup1\n      0x40\n      add\n      0x40\n      mstore\n      dup1\n      0x01\n      dup2\n      mstore\n      0x20\n      add\n      0x4400000000000000000000000000000000000000000000000000000000000000\n      dup2\n      mstore\n      pop\n      dup2\n      mstore\n      0x20\n      add\n      mload(0x40)\n      dup1\n      0x40\n      add\n      0x40\n      mstore\n      dup1\n      0x02\n      dup2\n      mstore\n      0x20\n      add\n      0x4344000000000000000000000000000000000000000000000000000000000000\n      dup2\n      mstore\n      pop\n      dup2\n      mstore\n      0x20\n      add\n      mload(0x40)\n      dup1\n      0x40\n      add\n      0x40\n      mstore\n      dup1\n      0x01\n      dup2\n      mstore\n      0x20\n      add\n      0x4300000000000000000000000000000000000000000000000000000000000000\n      dup2\n      mstore\n      pop\n      dup2\n      mstore\n      0x20\n      add\n      mload(0x40)\n      dup1\n      0x40\n      add\n      0x40\n      mstore\n      dup1\n      0x02\n      dup2\n      mstore\n      0x20\n      add\n      0x5843000000000000000000000000000000000000000000000000000000000000\n      dup2\n      mstore\n      pop\n      dup2\n      mstore\n      0x20\n      add\n      mload(0x40)\n      dup1\n      0x40\n      add\n      0x40\n      mstore\n      dup1\n      0x01\n      dup2\n      mstore\n      0x20\n      add\n      0x4c00000000000000000000000000000000000000000000000000000000000000\n      dup2\n      mstore\n      pop\n      dup2\n      mstore\n      0x20\n      add\n      mload(0x40)\n      dup1\n      0x40\n      add\n      0x40\n      mstore\n      dup1\n      0x02\n      dup2\n      mstore\n      0x20\n      add\n      0x584c000000000000000000000000000000000000000000000000000000000000\n      dup2\n      mstore\n      pop\n      dup2\n      mstore\n      0x20\n      add\n      mload(0x40)\n      dup1\n      0x40\n      add\n      0x40\n      mstore\n      dup1\n      0x01\n      dup2\n      mstore\n      0x20\n      add\n      0x5800000000000000000000000000000000000000000000000000000000000000\n      dup2\n      mstore\n      pop\n      dup2\n      mstore\n      0x20\n      add\n      mload(0x40)\n      dup1\n      0x40\n      add\n      0x40\n      mstore\n      dup1\n      0x02\n      dup2\n      mstore\n      0x20\n      add\n      0x4958000000000000000000000000000000000000000000000000000000000000\n      dup2\n      mstore\n      pop\n      dup2\n      mstore\n      0x20\n      add\n      mload(0x40)\n      dup1\n      0x40\n      add\n      0x40\n      mstore\n      dup1\n      0x01\n      dup2\n      mstore\n      0x20\n      add\n      0x5600000000000000000000000000000000000000000000000000000000000000\n      dup2\n      mstore\n      pop\n      dup2\n      mstore\n      0x20\n      add\n      mload(0x40)\n      dup1\n      0x40\n      add\n      0x40\n      mstore\n      dup1\n      0x02\n      dup2\n      mstore\n      0x20\n      add\n      0x4956000000000000000000000000000000000000000000000000000000000000\n      dup2\n      mstore\n      pop\n      dup2\n      mstore\n      0x20\n      add\n      mload(0x40)\n      dup1\n      0x40\n      add\n      0x40\n      mstore\n      dup1\n      0x01\n      dup2\n      mstore\n      0x20\n      add\n      0x4900000000000000000000000000000000000000000000000000000000000000\n      dup2\n      mstore\n      pop\n      dup2\n      mstore\n      pop\n      swap1\n      pop\n        /* \"task01/integer-to-roman.sol\":722:741  bytes memory result */\n      0x60\n        /* \"task01/integer-to-roman.sol\":759:768  uint256 i */\n      0x00\n        /* \"task01/integer-to-roman.sol\":771:772  0 */\n      0x00\n        /* \"task01/integer-to-roman.sol\":759:772  uint256 i = 0 */\n      swap1\n      pop\n        /* \"task01/integer-to-roman.sol\":754:1008  for (uint256 i = 0; i < values.length && num > 0; i++){... */\n    tag_15:\n        /* \"task01/integer-to-roman.sol\":778:791  values.length */\n      0x0d\n        /* \"task01/integer-to-roman.sol\":774:775  i */\n      dup2\n        /* \"task01/integer-to-roman.sol\":774:791  i < values.length */\n      lt\n        /* \"task01/integer-to-roman.sol\":774:802  i < values.length && num > 0 */\n      dup1\n      iszero\n      tag_18\n      jumpi\n      pop\n        /* \"task01/integer-to-roman.sol\":801:802  0 */\n      0x00\n        /* \"task01/integer-to-roman.sol\":795:798  num */\n      dup7\n        /* \"task01/integer-to-roman.sol\":795:802  num > 0 */\n      gt\n        /* \"task01/integer-to-roman.sol\":774:802  i < values.length && num > 0 */\n    tag_18:\n        /* \"task01/integer-to-roman.sol\":754:1008  for (uint256 i = 0; i < values.length && num > 0; i++){... */\n      iszero\n      tag_16\n      jumpi\n        /* \"task01/integer-to-roman.sol\":859:997  while (num >= values[i]){... */\n    tag_19:\n        /* \"task01/integer-to-roman.sol\":873:879  values */\n      dup4\n        /* \"task01/integer-to-roman.sol\":880:881  i */\n      dup2\n        /* \"task01/integer-to-roman.sol\":873:882  values[i] */\n      0x0d\n      dup2\n      lt\n      tag_21\n      jumpi\n      tag_22\n      tag_23\n      jump\t// in\n    tag_22:\n    tag_21:\n      0x20\n      mul\n      add\n      mload\n        /* \"task01/integer-to-roman.sol\":866:869  num */\n      dup7\n        /* \"task01/integer-to-roman.sol\":866:882  num >= values[i] */\n      lt\n        /* \"task01/integer-to-roman.sol\":859:997  while (num >= values[i]){... */\n      tag_20\n      jumpi\n        /* \"task01/integer-to-roman.sol\":928:934  result */\n      dup2\n        /* \"task01/integer-to-roman.sol\":935:942  symbols */\n      dup4\n        /* \"task01/integer-to-roman.sol\":943:944  i */\n      dup3\n        /* \"task01/integer-to-roman.sol\":935:945  symbols[i] */\n      0x0d\n      dup2\n      lt\n      tag_24\n      jumpi\n      tag_25\n      tag_23\n      jump\t// in\n    tag_25:\n    tag_24:\n      0x20\n      mul\n      add\n      mload\n        /* \"task01/integer-to-roman.sol\":911:946  abi.encodePacked(result,symbols[i]) */\n      add(0x20, mload(0x40))\n      tag_26\n      swap3\n      swap2\n      swap1\n      tag_27\n      jump\t// in\n    tag_26:\n      mload(0x40)\n      0x20\n      dup2\n      dup4\n      sub\n      sub\n      dup2\n      mstore\n      swap1\n      0x40\n      mstore\n        /* \"task01/integer-to-roman.sol\":902:946  result = abi.encodePacked(result,symbols[i]) */\n      swap2\n      pop\n        /* \"task01/integer-to-roman.sol\":972:978  values */\n      dup4\n        /* \"task01/integer-to-roman.sol\":979:980  i */\n      dup2\n        /* \"task01/integer-to-roman.sol\":972:981  values[i] */\n      0x0d\n      dup2\n      lt\n      tag_28\n      jumpi\n      tag_29\n      tag_23\n      jump\t// in\n    tag_29:\n    tag_28:\n      0x20\n      mul\n      add\n      mload\n        /* \"task01/integer-to-roman.sol\":965:981  num -= values[i] */\n      dup7\n      tag_30\n      swap2\n      swap1\n      tag_31\n      jump\t// in\n    tag_30:\n      swap6\n      pop\n        /* \"task01/integer-to-roman.sol\":859:997  while (num >= values[i]){... */\n      jump(tag_19)\n    tag_20:\n        /* \"task01/integer-to-roman.sol\":804:807  i++ */\n      dup1\n      dup1\n      tag_32\n      swap1\n      tag_33\n      jump\t// in\n    tag_32:\n      swap2\n      pop\n      pop\n        /* \"task01/integer-to-roman.sol\":754:1008  for (uint256 i = 0; i < values.length && num > 0; i++){... */\n      jump(tag_15)\n    tag_16:\n      pop\n        /* \"task01/integer-to-roman.sol\":1032:1038  result */\n      dup1\n        /* \"task01/integer-to-roman.sol\":1018:1039  return string(result) */\n      swap4\n      pop\n      pop\n      pop\n      pop\n        /* \"task01/integer-to-roman.sol\":93:1049  function intToRoman(uint256 num) public pure returns (string memory){... */\n      swap2\n      swap1\n      pop\n      jump\t// out\n        /* \"#utility.yul\":88:205   */\n    tag_35:\n        /* \"#utility.yul\":197:198   */\n      0x00\n        /* \"#utility.yul\":194:195   */\n      0x00\n        /* \"#utility.yul\":187:199   */\n      revert\n        /* \"#utility.yul\":334:411   */\n    tag_37:\n        /* \"#utility.yul\":371:378   */\n      0x00\n        /* \"#utility.yul\":400:405   */\n      dup2\n        /* \"#utility.yul\":389:405   */\n      swap1\n      pop\n        /* \"#utility.yul\":334:411   */\n      swap2\n      swap1\n      pop\n      jump\t// out\n        /* \"#utility.yul\":417:539   */\n    tag_38:\n        /* \"#utility.yul\":490:514   */\n      tag_59\n        /* \"#utility.yul\":508:513   */\n      dup2\n        /* \"#utility.yul\":490:514   */\n      tag_37\n      jump\t// in\n    tag_59:\n        /* \"#utility.yul\":483:488   */\n      dup2\n        /* \"#utility.yul\":480:515   */\n      eq\n        /* \"#utility.yul\":470:533   */\n      tag_60\n      jumpi\n        /* \"#utility.yul\":529:530   */\n      0x00\n        /* \"#utility.yul\":526:527   */\n      0x00\n        /* \"#utility.yul\":519:531   */\n      revert\n        /* \"#utility.yul\":470:533   */\n    tag_60:\n        /* \"#utility.yul\":417:539   */\n      pop\n      jump\t// out\n        /* \"#utility.yul\":545:684   */\n    tag_39:\n        /* \"#utility.yul\":591:596   */\n      0x00\n        /* \"#utility.yul\":629:635   */\n      dup2\n        /* \"#utility.yul\":616:636   */\n      calldataload\n        /* \"#utility.yul\":607:636   */\n      swap1\n      pop\n        /* \"#utility.yul\":645:678   */\n      tag_62\n        /* \"#utility.yul\":672:677   */\n      dup2\n        /* \"#utility.yul\":645:678   */\n      tag_38\n      jump\t// in\n    tag_62:\n        /* \"#utility.yul\":545:684   */\n      swap3\n      swap2\n      pop\n      pop\n      jump\t// out\n        /* \"#utility.yul\":690:1019   */\n    tag_6:\n        /* \"#utility.yul\":749:755   */\n      0x00\n        /* \"#utility.yul\":798:800   */\n      0x20\n        /* \"#utility.yul\":786:795   */\n      dup3\n        /* \"#utility.yul\":777:784   */\n      dup5\n        /* \"#utility.yul\":773:796   */\n      sub\n        /* \"#utility.yul\":769:801   */\n      slt\n        /* \"#utility.yul\":766:885   */\n      iszero\n      tag_64\n      jumpi\n        /* \"#utility.yul\":804:883   */\n      tag_65\n      tag_35\n      jump\t// in\n    tag_65:\n        /* \"#utility.yul\":766:885   */\n    tag_64:\n        /* \"#utility.yul\":924:925   */\n      0x00\n        /* \"#utility.yul\":949:1002   */\n      tag_66\n        /* \"#utility.yul\":994:1001   */\n      dup5\n        /* \"#utility.yul\":985:991   */\n      dup3\n        /* \"#utility.yul\":974:983   */\n      dup6\n        /* \"#utility.yul\":970:992   */\n      add\n        /* \"#utility.yul\":949:1002   */\n      tag_39\n      jump\t// in\n    tag_66:\n        /* \"#utility.yul\":939:1002   */\n      swap2\n      pop\n        /* \"#utility.yul\":895:1012   */\n      pop\n        /* \"#utility.yul\":690:1019   */\n      swap3\n      swap2\n      pop\n      pop\n      jump\t// out\n        /* \"#utility.yul\":1025:1124   */\n    tag_40:\n        /* \"#utility.yul\":1077:1083   */\n      0x00\n        /* \"#utility.yul\":1111:1116   */\n      dup2\n        /* \"#utility.yul\":1105:1117   */\n      mload\n        /* \"#utility.yul\":1095:1117   */\n      swap1\n      pop\n        /* \"#utility.yul\":1025:1124   */\n      swap2\n      swap1\n      pop\n      jump\t// out\n        /* \"#utility.yul\":1130:1299   */\n    tag_41:\n        /* \"#utility.yul\":1214:1225   */\n      0x00\n        /* \"#utility.yul\":1248:1254   */\n      dup3\n        /* \"#utility.yul\":1243:1246   */\n      dup3\n        /* \"#utility.yul\":1236:1255   */\n      mstore\n        /* \"#utility.yul\":1288:1292   */\n      0x20\n        /* \"#utility.yul\":1283:1286   */\n      dup3\n        /* \"#utility.yul\":1279:1293   */\n      add\n        /* \"#utility.yul\":1264:1293   */\n      swap1\n      pop\n        /* \"#utility.yul\":1130:1299   */\n      swap3\n      swap2\n      pop\n      pop\n      jump\t// out\n        /* \"#utility.yul\":1305:1444   */\n    tag_42:\n        /* \"#utility.yul\":1394:1400   */\n      dup3\n        /* \"#utility.yul\":1389:1392   */\n      dup2\n        /* \"#utility.yul\":1384:1387   */\n      dup4\n        /* \"#utility.yul\":1378:1401   */\n      mcopy\n        /* \"#utility.yul\":1435:1436   */\n      0x00\n        /* \"#utility.yul\":1426:1432   */\n      dup4\n        /* \"#utility.yul\":1421:1424   */\n      dup4\n        /* \"#utility.yul\":1417:1433   */\n      add\n        /* \"#utility.yul\":1410:1437   */\n      mstore\n        /* \"#utility.yul\":1305:1444   */\n      pop\n      pop\n      pop\n      jump\t// out\n        /* \"#utility.yul\":1450:1552   */\n    tag_43:\n        /* \"#utility.yul\":1491:1497   */\n      0x00\n        /* \"#utility.yul\":1542:1544   */\n      0x1f\n        /* \"#utility.yul\":1538:1545   */\n      not\n        /* \"#utility.yul\":1533:1535   */\n      0x1f\n        /* \"#utility.yul\":1526:1531   */\n      dup4\n        /* \"#utility.yul\":1522:1536   */\n      add\n        /* \"#utility.yul\":1518:1546   */\n      and\n        /* \"#utility.yul\":1508:1546   */\n      swap1\n      pop\n        /* \"#utility.yul\":1450:1552   */\n      swap2\n      swap1\n      pop\n      jump\t// out\n        /* \"#utility.yul\":1558:1935   */\n    tag_44:\n        /* \"#utility.yul\":1646:1649   */\n      0x00\n        /* \"#utility.yul\":1674:1713   */\n      tag_72\n        /* \"#utility.yul\":1707:1712   */\n      dup3\n        /* \"#utility.yul\":1674:1713   */\n      tag_40\n      jump\t// in\n    tag_72:\n        /* \"#utility.yul\":1729:1800   */\n      tag_73\n        /* \"#utility.yul\":1793:1799   */\n      dup2\n        /* \"#utility.yul\":1788:1791   */\n      dup6\n        /* \"#utility.yul\":1729:1800   */\n      tag_41\n      jump\t// in\n    tag_73:\n        /* \"#utility.yul\":1722:1800   */\n      swap4\n      pop\n        /* \"#utility.yul\":1809:1874   */\n      tag_74\n        /* \"#utility.yul\":1867:1873   */\n      dup2\n        /* \"#utility.yul\":1862:1865   */\n      dup6\n        /* \"#utility.yul\":1855:1859   */\n      0x20\n        /* \"#utility.yul\":1848:1853   */\n      dup7\n        /* \"#utility.yul\":1844:1860   */\n      add\n        /* \"#utility.yul\":1809:1874   */\n      tag_42\n      jump\t// in\n    tag_74:\n        /* \"#utility.yul\":1899:1928   */\n      tag_75\n        /* \"#utility.yul\":1921:1927   */\n      dup2\n        /* \"#utility.yul\":1899:1928   */\n      tag_43\n      jump\t// in\n    tag_75:\n        /* \"#utility.yul\":1894:1897   */\n      dup5\n        /* \"#utility.yul\":1890:1929   */\n      add\n        /* \"#utility.yul\":1883:1929   */\n      swap2\n      pop\n        /* \"#utility.yul\":1650:1935   */\n      pop\n        /* \"#utility.yul\":1558:1935   */\n      swap3\n      swap2\n      pop\n      pop\n      jump\t// out\n        /* \"#utility.yul\":1941:2254   */\n    tag_9:\n        /* \"#utility.yul\":2054:2058   */\n      0x00\n        /* \"#utility.yul\":2092:2094   */\n      0x20\n        /* \"#utility.yul\":2081:2090   */\n      dup3\n        /* \"#utility.yul\":2077:2095   */\n      add\n        /* \"#utility.yul\":2069:2095   */\n      swap1\n      pop\n        /* \"#utility.yul\":2141:2150   */\n      dup2\n        /* \"#utility.yul\":2135:2139   */\n      dup2\n        /* \"#utility.yul\":2131:2151   */\n      sub\n        /* \"#utility.yul\":2127:2128   */\n      0x00\n        /* \"#utility.yul\":2116:2125   */\n      dup4\n        /* \"#utility.yul\":2112:2129   */\n      add\n        /* \"#utility.yul\":2105:2152   */\n      mstore\n        /* \"#utility.yul\":2169:2247   */\n      tag_77\n        /* \"#utility.yul\":2242:2246   */\n      dup2\n        /* \"#utility.yul\":2233:2239   */\n      dup5\n        /* \"#utility.yul\":2169:2247   */\n      tag_44\n      jump\t// in\n    tag_77:\n        /* \"#utility.yul\":2161:2247   */\n      swap1\n      pop\n        /* \"#utility.yul\":1941:2254   */\n      swap3\n      swap2\n      pop\n      pop\n      jump\t// out\n        /* \"#utility.yul\":2260:2419   */\n    tag_45:\n        /* \"#utility.yul\":2400:2411   */\n      0x6f75742072616e67650000000000000000000000000000000000000000000000\n        /* \"#utility.yul\":2396:2397   */\n      0x00\n        /* \"#utility.yul\":2388:2394   */\n      dup3\n        /* \"#utility.yul\":2384:2398   */\n      add\n        /* \"#utility.yul\":2377:2412   */\n      mstore\n        /* \"#utility.yul\":2260:2419   */\n      pop\n      jump\t// out\n        /* \"#utility.yul\":2425:2790   */\n    tag_46:\n        /* \"#utility.yul\":2567:2570   */\n      0x00\n        /* \"#utility.yul\":2588:2654   */\n      tag_80\n        /* \"#utility.yul\":2652:2653   */\n      0x09\n        /* \"#utility.yul\":2647:2650   */\n      dup4\n        /* \"#utility.yul\":2588:2654   */\n      tag_41\n      jump\t// in\n    tag_80:\n        /* \"#utility.yul\":2581:2654   */\n      swap2\n      pop\n        /* \"#utility.yul\":2663:2756   */\n      tag_81\n        /* \"#utility.yul\":2752:2755   */\n      dup3\n        /* \"#utility.yul\":2663:2756   */\n      tag_45\n      jump\t// in\n    tag_81:\n        /* \"#utility.yul\":2781:2783   */\n      0x20\n        /* \"#utility.yul\":2776:2779   */\n      dup3\n        /* \"#utility.yul\":2772:2784   */\n      add\n        /* \"#utility.yul\":2765:2784   */\n      swap1\n      pop\n        /* \"#utility.yul\":2425:2790   */\n      swap2\n      swap1\n      pop\n      jump\t// out\n        /* \"#utility.yul\":2796:3215   */\n    tag_14:\n        /* \"#utility.yul\":2962:2966   */\n      0x00\n        /* \"#utility.yul\":3000:3002   */\n      0x20\n        /* \"#utility.yul\":2989:2998   */\n      dup3\n        /* \"#utility.yul\":2985:3003   */\n      add\n        /* \"#utility.yul\":2977:3003   */\n      swap1\n      pop\n        /* \"#utility.yul\":3049:3058   */\n      dup2\n        /* \"#utility.yul\":3043:3047   */\n      dup2\n        /* \"#utility.yul\":3039:3059   */\n      sub\n        /* \"#utility.yul\":3035:3036   */\n      0x00\n        /* \"#utility.yul\":3024:3033   */\n      dup4\n        /* \"#utility.yul\":3020:3037   */\n      add\n        /* \"#utility.yul\":3013:3060   */\n      mstore\n        /* \"#utility.yul\":3077:3208   */\n      tag_83\n        /* \"#utility.yul\":3203:3207   */\n      dup2\n        /* \"#utility.yul\":3077:3208   */\n      tag_46\n      jump\t// in\n    tag_83:\n        /* \"#utility.yul\":3069:3208   */\n      swap1\n      pop\n        /* \"#utility.yul\":2796:3215   */\n      swap2\n      swap1\n      pop\n      jump\t// out\n        /* \"#utility.yul\":3221:3401   */\n    tag_23:\n        /* \"#utility.yul\":3269:3346   */\n      0x4e487b7100000000000000000000000000000000000000000000000000000000\n        /* \"#utility.yul\":3266:3267   */\n      0x00\n        /* \"#utility.yul\":3259:3347   */\n      mstore\n        /* \"#utility.yul\":3366:3370   */\n      0x32\n        /* \"#utility.yul\":3363:3364   */\n      0x04\n        /* \"#utility.yul\":3356:3371   */\n      mstore\n        /* \"#utility.yul\":3390:3394   */\n      0x24\n        /* \"#utility.yul\":3387:3388   */\n      0x00\n        /* \"#utility.yul\":3380:3395   */\n      revert\n        /* \"#utility.yul\":3407:3505   */\n    tag_47:\n        /* \"#utility.yul\":3458:3464   */\n      0x00\n        /* \"#utility.yul\":3492:3497   */\n      dup2\n        /* \"#utility.yul\":3486:3498   */\n      mload\n        /* \"#utility.yul\":3476:3498   */\n      swap1\n      pop\n        /* \"#utility.yul\":3407:3505   */\n      swap2\n      swap1\n      pop\n      jump\t// out\n        /* \"#utility.yul\":3511:3658   */\n    tag_48:\n        /* \"#utility.yul\":3612:3623   */\n      0x00\n        /* \"#utility.yul\":3649:3652   */\n      dup2\n        /* \"#utility.yul\":3634:3652   */\n      swap1\n      pop\n        /* \"#utility.yul\":3511:3658   */\n      swap3\n      swap2\n      pop\n      pop\n      jump\t// out\n        /* \"#utility.yul\":3664:4050   */\n    tag_49:\n        /* \"#utility.yul\":3768:3771   */\n      0x00\n        /* \"#utility.yul\":3796:3834   */\n      tag_88\n        /* \"#utility.yul\":3828:3833   */\n      dup3\n        /* \"#utility.yul\":3796:3834   */\n      tag_47\n      jump\t// in\n    tag_88:\n        /* \"#utility.yul\":3850:3938   */\n      tag_89\n        /* \"#utility.yul\":3931:3937   */\n      dup2\n        /* \"#utility.yul\":3926:3929   */\n      dup6\n        /* \"#utility.yul\":3850:3938   */\n      tag_48\n      jump\t// in\n    tag_89:\n        /* \"#utility.yul\":3843:3938   */\n      swap4\n      pop\n        /* \"#utility.yul\":3947:4012   */\n      tag_90\n        /* \"#utility.yul\":4005:4011   */\n      dup2\n        /* \"#utility.yul\":4000:4003   */\n      dup6\n        /* \"#utility.yul\":3993:3997   */\n      0x20\n        /* \"#utility.yul\":3986:3991   */\n      dup7\n        /* \"#utility.yul\":3982:3998   */\n      add\n        /* \"#utility.yul\":3947:4012   */\n      tag_42\n      jump\t// in\n    tag_90:\n        /* \"#utility.yul\":4037:4043   */\n      dup1\n        /* \"#utility.yul\":4032:4035   */\n      dup5\n        /* \"#utility.yul\":4028:4044   */\n      add\n        /* \"#utility.yul\":4021:4044   */\n      swap2\n      pop\n        /* \"#utility.yul\":3772:4050   */\n      pop\n        /* \"#utility.yul\":3664:4050   */\n      swap3\n      swap2\n      pop\n      pop\n      jump\t// out\n        /* \"#utility.yul\":4056:4204   */\n    tag_50:\n        /* \"#utility.yul\":4158:4169   */\n      0x00\n        /* \"#utility.yul\":4195:4198   */\n      dup2\n        /* \"#utility.yul\":4180:4198   */\n      swap1\n      pop\n        /* \"#utility.yul\":4056:4204   */\n      swap3\n      swap2\n      pop\n      pop\n      jump\t// out\n        /* \"#utility.yul\":4210:4600   */\n    tag_51:\n        /* \"#utility.yul\":4316:4319   */\n      0x00\n        /* \"#utility.yul\":4344:4383   */\n      tag_93\n        /* \"#utility.yul\":4377:4382   */\n      dup3\n        /* \"#utility.yul\":4344:4383   */\n      tag_40\n      jump\t// in\n    tag_93:\n        /* \"#utility.yul\":4399:4488   */\n      tag_94\n        /* \"#utility.yul\":4481:4487   */\n      dup2\n        /* \"#utility.yul\":4476:4479   */\n      dup6\n        /* \"#utility.yul\":4399:4488   */\n      tag_50\n      jump\t// in\n    tag_94:\n        /* \"#utility.yul\":4392:4488   */\n      swap4\n      pop\n        /* \"#utility.yul\":4497:4562   */\n      tag_95\n        /* \"#utility.yul\":4555:4561   */\n      dup2\n        /* \"#utility.yul\":4550:4553   */\n      dup6\n        /* \"#utility.yul\":4543:4547   */\n      0x20\n        /* \"#utility.yul\":4536:4541   */\n      dup7\n        /* \"#utility.yul\":4532:4548   */\n      add\n        /* \"#utility.yul\":4497:4562   */\n      tag_42\n      jump\t// in\n    tag_95:\n        /* \"#utility.yul\":4587:4593   */\n      dup1\n        /* \"#utility.yul\":4582:4585   */\n      dup5\n        /* \"#utility.yul\":4578:4594   */\n      add\n        /* \"#utility.yul\":4571:4594   */\n      swap2\n      pop\n        /* \"#utility.yul\":4320:4600   */\n      pop\n        /* \"#utility.yul\":4210:4600   */\n      swap3\n      swap2\n      pop\n      pop\n      jump\t// out\n        /* \"#utility.yul\":4606:5037   */\n    tag_27:\n        /* \"#utility.yul\":4784:4787   */\n      0x00\n        /* \"#utility.yul\":4806:4899   */\n      tag_97\n        /* \"#utility.yul\":4895:4898   */\n      dup3\n        /* \"#utility.yul\":4886:4892   */\n      dup6\n        /* \"#utility.yul\":4806:4899   */\n      tag_49\n      jump\t// in\n    tag_97:\n        /* \"#utility.yul\":4799:4899   */\n      swap2\n      pop\n        /* \"#utility.yul\":4916:5011   */\n      tag_98\n        /* \"#utility.yul\":5007:5010   */\n      dup3\n        /* \"#utility.yul\":4998:5004   */\n      dup5\n        /* \"#utility.yul\":4916:5011   */\n      tag_51\n      jump\t// in\n    tag_98:\n        /* \"#utility.yul\":4909:5011   */\n      swap2\n      pop\n        /* \"#utility.yul\":5028:5031   */\n      dup2\n        /* \"#utility.yul\":5021:5031   */\n      swap1\n      pop\n        /* \"#utility.yul\":4606:5037   */\n      swap4\n      swap3\n      pop\n      pop\n      pop\n      jump\t// out\n        /* \"#utility.yul\":5043:5223   */\n    tag_52:\n        /* \"#utility.yul\":5091:5168   */\n      0x4e487b7100000000000000000000000000000000000000000000000000000000\n        /* \"#utility.yul\":5088:5089   */\n      0x00\n        /* \"#utility.yul\":5081:5169   */\n      mstore\n        /* \"#utility.yul\":5188:5192   */\n      0x11\n        /* \"#utility.yul\":5185:5186   */\n      0x04\n        /* \"#utility.yul\":5178:5193   */\n      mstore\n        /* \"#utility.yul\":5212:5216   */\n      0x24\n        /* \"#utility.yul\":5209:5210   */\n      0x00\n        /* \"#utility.yul\":5202:5217   */\n      revert\n        /* \"#utility.yul\":5229:5423   */\n    tag_31:\n        /* \"#utility.yul\":5269:5273   */\n      0x00\n        /* \"#utility.yul\":5289:5309   */\n      tag_101\n        /* \"#utility.yul\":5307:5308   */\n      dup3\n        /* \"#utility.yul\":5289:5309   */\n      tag_37\n      jump\t// in\n    tag_101:\n        /* \"#utility.yul\":5284:5309   */\n      swap2\n      pop\n        /* \"#utility.yul\":5323:5343   */\n      tag_102\n        /* \"#utility.yul\":5341:5342   */\n      dup4\n        /* \"#utility.yul\":5323:5343   */\n      tag_37\n      jump\t// in\n    tag_102:\n        /* \"#utility.yul\":5318:5343   */\n      swap3\n      pop\n        /* \"#utility.yul\":5367:5368   */\n      dup3\n        /* \"#utility.yul\":5364:5365   */\n      dup3\n        /* \"#utility.yul\":5360:5369   */\n      sub\n        /* \"#utility.yul\":5352:5369   */\n      swap1\n      pop\n        /* \"#utility.yul\":5391:5392   */\n      dup2\n        /* \"#utility.yul\":5385:5389   */\n      dup2\n        /* \"#utility.yul\":5382:5393   */\n      gt\n        /* \"#utility.yul\":5379:5416   */\n      iszero\n      tag_103\n      jumpi\n        /* \"#utility.yul\":5396:5414   */\n      tag_104\n      tag_52\n      jump\t// in\n    tag_104:\n        /* \"#utility.yul\":5379:5416   */\n    tag_103:\n        /* \"#utility.yul\":5229:5423   */\n      swap3\n      swap2\n      pop\n      pop\n      jump\t// out\n        /* \"#utility.yul\":5429:5662   */\n    tag_33:\n        /* \"#utility.yul\":5468:5471   */\n      0x00\n        /* \"#utility.yul\":5491:5515   */\n      tag_106\n        /* \"#utility.yul\":5509:5514   */\n      dup3\n        /* \"#utility.yul\":5491:5515   */\n      tag_37\n      jump\t// in\n    tag_106:\n        /* \"#utility.yul\":5482:5515   */\n      swap2\n      pop\n        /* \"#utility.yul\":5537:5603   */\n      0xffffffffffffffffffffffffffffffffffffffffffffffffffffffffffffffff\n        /* \"#utility.yul\":5530:5535   */\n      dup3\n        /* \"#utility.yul\":5527:5604   */\n      sub\n        /* \"#utility.yul\":5524:5627   */\n      tag_107\n      jumpi\n        /* \"#utility.yul\":5607:5625   */\n      tag_108\n      tag_52\n      jump\t// in\n    tag_108:\n        /* \"#utility.yul\":5524:5627   */\n    tag_107:\n        /* \"#utility.yul\":5654:5655   */\n      0x01\n        /* \"#utility.yul\":5647:5652   */\n      dup3\n        /* \"#utility.yul\":5643:5656   */\n      add\n        /* \"#utility.yul\":5636:5656   */\n      swap1\n      pop\n        /* \"#utility.yul\":5429:5662   */\n      swap2\n      swap1\n      pop\n      jump\t// out\n\n    auxdata: 0xa2646970667358221220ff42b18e1e27da57cde57ceb821c304d26909b41af98f2e7b4b8e8143a24c44f64736f6c634300081e0033\n}\n",
				"bytecode": {
					"linkReferences": {},
					"object": "6080604052348015600e575f5ffd5b506107ea8061001c5f395ff3fe608060405234801561000f575f5ffd5b5060043610610029575f3560e01c80630cbc513a1461002d575b5f5ffd5b6100476004803603810190610042919061051c565b61005d565b60405161005491906105b7565b60405180910390f35b60605f82118015610070575061018f8211155b6100af576040517f08c379a00000000000000000000000000000000000000000000000000000000081526004016100a690610621565b60405180910390fd5b5f604051806101a001604052806103e8815260200161038481526020016101f48152602001610190815260200160648152602001605a81526020016032815260200160288152602001600a8152602001600981526020016005815260200160048152602001600181525090505f604051806101a001604052806040518060400160405280600181526020017f4d0000000000000000000000000000000000000000000000000000000000000081525081526020016040518060400160405280600281526020017f434d00000000000000000000000000000000000000000000000000000000000081525081526020016040518060400160405280600181526020017f440000000000000000000000000000000000000000000000000000000000000081525081526020016040518060400160405280600281526020017f434400000000000000000000000000000000000000000000000000000000000081525081526020016040518060400160405280600181526020017f430000000000000000000000000000000000000000000000000000000000000081525081526020016040518060400160405280600281526020017f584300000000000000000000000000000000000000000000000000000000000081525081526020016040518060400160405280600181526020017f4c0000000000000000000000000000000000000000000000000000000000000081525081526020016040518060400160405280600281526020017f584c00000000000000000000000000000000000000000000000000000000000081525081526020016040518060400160405280600181526020017f580000000000000000000000000000000000000000000000000000000000000081525081526020016040518060400160405280600281526020017f495800000000000000000000000000000000000000000000000000000000000081525081526020016040518060400160405280600181526020017f560000000000000000000000000000000000000000000000000000000000000081525081526020016040518060400160405280600281526020017f495600000000000000000000000000000000000000000000000000000000000081525081526020016040518060400160405280600181526020017f4900000000000000000000000000000000000000000000000000000000000000815250815250905060605f5f90505b600d8110801561043d57505f86115b156104d9575b8381600d81106104565761045561063f565b5b602002015186106104c657818382600d81106104755761047461063f565b5b602002015160405160200161048b9291906106ea565b60405160208183030381529060405291508381600d81106104af576104ae61063f565b5b6020020151866104bf919061073a565b9550610443565b80806104d19061076d565b91505061042e565b50809350505050919050565b5f5ffd5b5f819050919050565b6104fb816104e9565b8114610505575f5ffd5b50565b5f81359050610516816104f2565b92915050565b5f60208284031215610531576105306104e5565b5b5f61053e84828501610508565b91505092915050565b5f81519050919050565b5f82825260208201905092915050565b8281835e5f83830152505050565b5f601f19601f8301169050919050565b5f61058982610547565b6105938185610551565b93506105a3818560208601610561565b6105ac8161056f565b840191505092915050565b5f6020820190508181035f8301526105cf818461057f565b905092915050565b7f6f75742072616e676500000000000000000000000000000000000000000000005f82015250565b5f61060b600983610551565b9150610616826105d7565b602082019050919050565b5f6020820190508181035f830152610638816105ff565b9050919050565b7f4e487b71000000000000000000000000000000000000000000000000000000005f52603260045260245ffd5b5f81519050919050565b5f81905092915050565b5f61068a8261066c565b6106948185610676565b93506106a4818560208601610561565b80840191505092915050565b5f81905092915050565b5f6106c482610547565b6106ce81856106b0565b93506106de818560208601610561565b80840191505092915050565b5f6106f58285610680565b915061070182846106ba565b91508190509392505050565b7f4e487b71000000000000000000000000000000000000000000000000000000005f52601160045260245ffd5b5f610744826104e9565b915061074f836104e9565b92508282039050818111156107675761076661070d565b5b92915050565b5f610777826104e9565b91507fffffffffffffffffffffffffffffffffffffffffffffffffffffffffffffffff82036107a9576107a861070d565b5b60018201905091905056fea2646970667358221220ff42b18e1e27da57cde57ceb821c304d26909b41af98f2e7b4b8e8143a24c44f64736f6c634300081e0033",
					"opcodes": "PUSH1 0x80 PUSH1 0x40 MSTORE CALLVALUE DUP1 ISZERO PUSH1 0xE JUMPI PUSH0 PUSH0 REVERT JUMPDEST POP PUSH2 0x7EA DUP1 PUSH2 0x1C PUSH0 CODECOPY PUSH0 RETURN INVALID PUSH1 0x80 PUSH1 0x40 MSTORE CALLVALUE DUP1 ISZERO PUSH2 0xF JUMPI PUSH0 PUSH0 REVERT JUMPDEST POP PUSH1 0x4 CALLDATASIZE LT PUSH2 0x29 JUMPI PUSH0 CALLDATALOAD PUSH1 0xE0 SHR DUP1 PUSH4 0xCBC513A EQ PUSH2 0x2D JUMPI JUMPDEST PUSH0 PUSH0 REVERT JUMPDEST PUSH2 0x47 PUSH1 0x4 DUP1 CALLDATASIZE SUB DUP2 ADD SWAP1 PUSH2 0x42 SWAP2 SWAP1 PUSH2 0x51C JUMP JUMPDEST PUSH2 0x5D JUMP JUMPDEST PUSH1 0x40 MLOAD PUSH2 0x54 SWAP2 SWAP1 PUSH2 0x5B7 JUMP JUMPDEST PUSH1 0x40 MLOAD DUP1 SWAP2 SUB SWAP1 RETURN JUMPDEST PUSH1 0x60 PUSH0 DUP3 GT DUP1 ISZERO PUSH2 0x70 JUMPI POP PUSH2 0x18F DUP3 GT ISZERO JUMPDEST PUSH2 0xAF JUMPI PUSH1 0x40 MLOAD PUSH32 0x8C379A000000000000000000000000000000000000000000000000000000000 DUP2 MSTORE PUSH1 0x4 ADD PUSH2 0xA6 SWAP1 PUSH2 0x621 JUMP JUMPDEST PUSH1 0x40 MLOAD DUP1 SWAP2 SUB SWAP1 REVERT JUMPDEST PUSH0 PUSH1 0x40 MLOAD DUP1 PUSH2 0x1A0 ADD PUSH1 0x40 MSTORE DUP1 PUSH2 0x3E8 DUP2 MSTORE PUSH1 0x20 ADD PUSH2 0x384 DUP2 MSTORE PUSH1 0x20 ADD PUSH2 0x1F4 DUP2 MSTORE PUSH1 0x20 ADD PUSH2 0x190 DUP2 MSTORE PUSH1 0x20 ADD PUSH1 0x64 DUP2 MSTORE PUSH1 0x20 ADD PUSH1 0x5A DUP2 MSTORE PUSH1 0x20 ADD PUSH1 0x32 DUP2 MSTORE PUSH1 0x20 ADD PUSH1 0x28 DUP2 MSTORE PUSH1 0x20 ADD PUSH1 0xA DUP2 MSTORE PUSH1 0x20 ADD PUSH1 0x9 DUP2 MSTORE PUSH1 0x20 ADD PUSH1 0x5 DUP2 MSTORE PUSH1 0x20 ADD PUSH1 0x4 DUP2 MSTORE PUSH1 0x20 ADD PUSH1 0x1 DUP2 MSTORE POP SWAP1 POP PUSH0 PUSH1 0x40 MLOAD DUP1 PUSH2 0x1A0 ADD PUSH1 0x40 MSTORE DUP1 PUSH1 0x40 MLOAD DUP1 PUSH1 0x40 ADD PUSH1 0x40 MSTORE DUP1 PUSH1 0x1 DUP2 MSTORE PUSH1 0x20 ADD PUSH32 0x4D00000000000000000000000000000000000000000000000000000000000000 DUP2 MSTORE POP DUP2 MSTORE PUSH1 0x20 ADD PUSH1 0x40 MLOAD DUP1 PUSH1 0x40 ADD PUSH1 0x40 MSTORE DUP1 PUSH1 0x2 DUP2 MSTORE PUSH1 0x20 ADD PUSH32 0x434D000000000000000000000000000000000000000000000000000000000000 DUP2 MSTORE POP DUP2 MSTORE PUSH1 0x20 ADD PUSH1 0x40 MLOAD DUP1 PUSH1 0x40 ADD PUSH1 0x40 MSTORE DUP1 PUSH1 0x1 DUP2 MSTORE PUSH1 0x20 ADD PUSH32 0x4400000000000000000000000000000000000000000000000000000000000000 DUP2 MSTORE POP DUP2 MSTORE PUSH1 0x20 ADD PUSH1 0x40 MLOAD DUP1 PUSH1 0x40 ADD PUSH1 0x40 MSTORE DUP1 PUSH1 0x2 DUP2 MSTORE PUSH1 0x20 ADD PUSH32 0x4344000000000000000000000000000000000000000000000000000000000000 DUP2 MSTORE POP DUP2 MSTORE PUSH1 0x20 ADD PUSH1 0x40 MLOAD DUP1 PUSH1 0x40 ADD PUSH1 0x40 MSTORE DUP1 PUSH1 0x1 DUP2 MSTORE PUSH1 0x20 ADD PUSH32 0x4300000000000000000000000000000000000000000000000000000000000000 DUP2 MSTORE POP DUP2 MSTORE PUSH1 0x20 ADD PUSH1 0x40 MLOAD DUP1 PUSH1 0x40 ADD PUSH1 0x40 MSTORE DUP1 PUSH1 0x2 DUP2 MSTORE PUSH1 0x20 ADD PUSH32 0x5843000000000000000000000000000000000000000000000000000000000000 DUP2 MSTORE POP DUP2 MSTORE PUSH1 0x20 ADD PUSH1 0x40 MLOAD DUP1 PUSH1 0x40 ADD PUSH1 0x40 MSTORE DUP1 PUSH1 0x1 DUP2 MSTORE PUSH1 0x20 ADD PUSH32 0x4C00000000000000000000000000000000000000000000000000000000000000 DUP2 MSTORE POP DUP2 MSTORE PUSH1 0x20 ADD PUSH1 0x40 MLOAD DUP1 PUSH1 0x40 ADD PUSH1 0x40 MSTORE DUP1 PUSH1 0x2 DUP2 MSTORE PUSH1 0x20 ADD PUSH32 0x584C000000000000000000000000000000000000000000000000000000000000 DUP2 MSTORE POP DUP2 MSTORE PUSH1 0x20 ADD PUSH1 0x40 MLOAD DUP1 PUSH1 0x40 ADD PUSH1 0x40 MSTORE DUP1 PUSH1 0x1 DUP2 MSTORE PUSH1 0x20 ADD PUSH32 0x5800000000000000000000000000000000000000000000000000000000000000 DUP2 MSTORE POP DUP2 MSTORE PUSH1 0x20 ADD PUSH1 0x40 MLOAD DUP1 PUSH1 0x40 ADD PUSH1 0x40 MSTORE DUP1 PUSH1 0x2 DUP2 MSTORE PUSH1 0x20 ADD PUSH32 0x4958000000000000000000000000000000000000000000000000000000000000 DUP2 MSTORE POP DUP2 MSTORE PUSH1 0x20 ADD PUSH1 0x40 MLOAD DUP1 PUSH1 0x40 ADD PUSH1 0x40 MSTORE DUP1 PUSH1 0x1 DUP2 MSTORE PUSH1 0x20 ADD PUSH32 0x5600000000000000000000000000000000000000000000000000000000000000 DUP2 MSTORE POP DUP2 MSTORE PUSH1 0x20 ADD PUSH1 0x40 MLOAD DUP1 PUSH1 0x40 ADD PUSH1 0x40 MSTORE DUP1 PUSH1 0x2 DUP2 MSTORE PUSH1 0x20 ADD PUSH32 0x4956000000000000000000000000000000000000000000000000000000000000 DUP2 MSTORE POP DUP2 MSTORE PUSH1 0x20 ADD PUSH1 0x40 MLOAD DUP1 PUSH1 0x40 ADD PUSH1 0x40 MSTORE DUP1 PUSH1 0x1 DUP2 MSTORE PUSH1 0x20 ADD PUSH32 0x4900000000000000000000000000000000000000000000000000000000000000 DUP2 MSTORE POP DUP2 MSTORE POP SWAP1 POP PUSH1 0x60 PUSH0 PUSH0 SWAP1 POP JUMPDEST PUSH1 0xD DUP2 LT DUP1 ISZERO PUSH2 0x43D JUMPI POP PUSH0 DUP7 GT JUMPDEST ISZERO PUSH2 0x4D9 JUMPI JUMPDEST DUP4 DUP2 PUSH1 0xD DUP2 LT PUSH2 0x456 JUMPI PUSH2 0x455 PUSH2 0x63F JUMP JUMPDEST JUMPDEST PUSH1 0x20 MUL ADD MLOAD DUP7 LT PUSH2 0x4C6 JUMPI DUP2 DUP4 DUP3 PUSH1 0xD DUP2 LT PUSH2 0x475 JUMPI PUSH2 0x474 PUSH2 0x63F JUMP JUMPDEST JUMPDEST PUSH1 0x20 MUL ADD MLOAD PUSH1 0x40 MLOAD PUSH1 0x20 ADD PUSH2 0x48B SWAP3 SWAP2 SWAP1 PUSH2 0x6EA JUMP JUMPDEST PUSH1 0x40 MLOAD PUSH1 0x20 DUP2 DUP4 SUB SUB DUP2 MSTORE SWAP1 PUSH1 0x40 MSTORE SWAP2 POP DUP4 DUP2 PUSH1 0xD DUP2 LT PUSH2 0x4AF JUMPI PUSH2 0x4AE PUSH2 0x63F JUMP JUMPDEST JUMPDEST PUSH1 0x20 MUL ADD MLOAD DUP7 PUSH2 0x4BF SWAP2 SWAP1 PUSH2 0x73A JUMP JUMPDEST SWAP6 POP PUSH2 0x443 JUMP JUMPDEST DUP1 DUP1 PUSH2 0x4D1 SWAP1 PUSH2 0x76D JUMP JUMPDEST SWAP2 POP POP PUSH2 0x42E JUMP JUMPDEST POP DUP1 SWAP4 POP POP POP POP SWAP2 SWAP1 POP JUMP JUMPDEST PUSH0 PUSH0 REVERT JUMPDEST PUSH0 DUP2 SWAP1 POP SWAP2 SWAP1 POP JUMP JUMPDEST PUSH2 0x4FB DUP2 PUSH2 0x4E9 JUMP JUMPDEST DUP2 EQ PUSH2 0x505 JUMPI PUSH0 PUSH0 REVERT JUMPDEST POP JUMP JUMPDEST PUSH0 DUP2 CALLDATALOAD SWAP1 POP PUSH2 0x516 DUP2 PUSH2 0x4F2 JUMP JUMPDEST SWAP3 SWAP2 POP POP JUMP JUMPDEST PUSH0 PUSH1 0x20 DUP3 DUP5 SUB SLT ISZERO PUSH2 0x531 JUMPI PUSH2 0x530 PUSH2 0x4E5 JUMP JUMPDEST JUMPDEST PUSH0 PUSH2 0x53E DUP5 DUP3 DUP6 ADD PUSH2 0x508 JUMP JUMPDEST SWAP2 POP POP SWAP3 SWAP2 POP POP JUMP JUMPDEST PUSH0 DUP2 MLOAD SWAP1 POP SWAP2 SWAP1 POP JUMP JUMPDEST PUSH0 DUP3 DUP3 MSTORE PUSH1 0x20 DUP3 ADD SWAP1 POP SWAP3 SWAP2 POP POP JUMP JUMPDEST DUP3 DUP2 DUP4 MCOPY PUSH0 DUP4 DUP4 ADD MSTORE POP POP POP JUMP JUMPDEST PUSH0 PUSH1 0x1F NOT PUSH1 0x1F DUP4 ADD AND SWAP1 POP SWAP2 SWAP1 POP JUMP JUMPDEST PUSH0 PUSH2 0x589 DUP3 PUSH2 0x547 JUMP JUMPDEST PUSH2 0x593 DUP2 DUP6 PUSH2 0x551 JUMP JUMPDEST SWAP4 POP PUSH2 0x5A3 DUP2 DUP6 PUSH1 0x20 DUP7 ADD PUSH2 0x561 JUMP JUMPDEST PUSH2 0x5AC DUP2 PUSH2 0x56F JUMP JUMPDEST DUP5 ADD SWAP2 POP POP SWAP3 SWAP2 POP POP JUMP JUMPDEST PUSH0 PUSH1 0x20 DUP3 ADD SWAP1 POP DUP2 DUP2 SUB PUSH0 DUP4 ADD MSTORE PUSH2 0x5CF DUP2 DUP5 PUSH2 0x57F JUMP JUMPDEST SWAP1 POP SWAP3 SWAP2 POP POP JUMP JUMPDEST PUSH32 0x6F75742072616E67650000000000000000000000000000000000000000000000 PUSH0 DUP3 ADD MSTORE POP JUMP JUMPDEST PUSH0 PUSH2 0x60B PUSH1 0x9 DUP4 PUSH2 0x551 JUMP JUMPDEST SWAP2 POP PUSH2 0x616 DUP3 PUSH2 0x5D7 JUMP JUMPDEST PUSH1 0x20 DUP3 ADD SWAP1 POP SWAP2 SWAP1 POP JUMP JUMPDEST PUSH0 PUSH1 0x20 DUP3 ADD SWAP1 POP DUP2 DUP2 SUB PUSH0 DUP4 ADD MSTORE PUSH2 0x638 DUP2 PUSH2 0x5FF JUMP JUMPDEST SWAP1 POP SWAP2 SWAP1 POP JUMP JUMPDEST PUSH32 0x4E487B7100000000000000000000000000000000000000000000000000000000 PUSH0 MSTORE PUSH1 0x32 PUSH1 0x4 MSTORE PUSH1 0x24 PUSH0 REVERT JUMPDEST PUSH0 DUP2 MLOAD SWAP1 POP SWAP2 SWAP1 POP JUMP JUMPDEST PUSH0 DUP2 SWAP1 POP SWAP3 SWAP2 POP POP JUMP JUMPDEST PUSH0 PUSH2 0x68A DUP3 PUSH2 0x66C JUMP JUMPDEST PUSH2 0x694 DUP2 DUP6 PUSH2 0x676 JUMP JUMPDEST SWAP4 POP PUSH2 0x6A4 DUP2 DUP6 PUSH1 0x20 DUP7 ADD PUSH2 0x561 JUMP JUMPDEST DUP1 DUP5 ADD SWAP2 POP POP SWAP3 SWAP2 POP POP JUMP JUMPDEST PUSH0 DUP2 SWAP1 POP SWAP3 SWAP2 POP POP JUMP JUMPDEST PUSH0 PUSH2 0x6C4 DUP3 PUSH2 0x547 JUMP JUMPDEST PUSH2 0x6CE DUP2 DUP6 PUSH2 0x6B0 JUMP JUMPDEST SWAP4 POP PUSH2 0x6DE DUP2 DUP6 PUSH1 0x20 DUP7 ADD PUSH2 0x561 JUMP JUMPDEST DUP1 DUP5 ADD SWAP2 POP POP SWAP3 SWAP2 POP POP JUMP JUMPDEST PUSH0 PUSH2 0x6F5 DUP3 DUP6 PUSH2 0x680 JUMP JUMPDEST SWAP2 POP PUSH2 0x701 DUP3 DUP5 PUSH2 0x6BA JUMP JUMPDEST SWAP2 POP DUP2 SWAP1 POP SWAP4 SWAP3 POP POP POP JUMP JUMPDEST PUSH32 0x4E487B7100000000000000000000000000000000000000000000000000000000 PUSH0 MSTORE PUSH1 0x11 PUSH1 0x4 MSTORE PUSH1 0x24 PUSH0 REVERT JUMPDEST PUSH0 PUSH2 0x744 DUP3 PUSH2 0x4E9 JUMP JUMPDEST SWAP2 POP PUSH2 0x74F DUP4 PUSH2 0x4E9 JUMP JUMPDEST SWAP3 POP DUP3 DUP3 SUB SWAP1 POP DUP2 DUP2 GT ISZERO PUSH2 0x767 JUMPI PUSH2 0x766 PUSH2 0x70D JUMP JUMPDEST JUMPDEST SWAP3 SWAP2 POP POP JUMP JUMPDEST PUSH0 PUSH2 0x777 DUP3 PUSH2 0x4E9 JUMP JUMPDEST SWAP2 POP PUSH32 0xFFFFFFFFFFFFFFFFFFFFFFFFFFFFFFFFFFFFFFFFFFFFFFFFFFFFFFFFFFFFFFFF DUP3 SUB PUSH2 0x7A9 JUMPI PUSH2 0x7A8 PUSH2 0x70D JUMP JUMPDEST JUMPDEST PUSH1 0x1 DUP3 ADD SWAP1 POP SWAP2 SWAP1 POP JUMP INVALID LOG2 PUSH5 0x6970667358 0x22 SLT KECCAK256 SELFDESTRUCT TIMESTAMP 0xB1 DUP15 0x1E 0x27 0xDA JUMPI 0xCD JUMPF 0x7CEB DUP3 SHR ADDRESS 0x4D 0x26 SWAP1 SWAP12 COINBASE 0xAF SWAP9 CALLCODE SWAPN 0xB4 0xB8 0xE8 EQ GASPRICE 0x24 0xC4 0x4F PUSH5 0x736F6C6343 STOP ADDMOD 0x1E STOP CALLER "
				},
				"gasEstimates": {
					"creation": {
						"codeDepositCost": "405200",
						"executionCost": "441",
						"totalCost": "405641"
					},
					"external": {
						"intToRoman(uint256)": "infinite"
					}
				},
				"methodIdentifiers": {
					"intToRoman(uint256)": "0cbc513a"
				}
			},
			"storageLayout": {
				"storage": [],
				"types": null
			},
			"userdoc": {
				"kind": "user",
				"methods": {},
				"version": 1
			}
		}
	}
}