{
	"task01/roman-to-integer.sol": {
		"RomanToInt": {
			"abi": [
				{
					"inputs": [
						{
							"internalType": "string",
							"name": "roman",
							"type": "string"
						}
					],
					"name": "romanToInt",
					"outputs": [
						{
							"internalType": "uint256",
							"name": "i",
							"type": "uint256"
						}
					],
					"stateMutability": "pure",
					"type": "function"
				}
			],
			"devdoc": {
				"kind": "dev",
				"methods": {},
				"version": 1
			},
			"evm": {
				"assembly": "    /* \"task01/roman-to-integer.sol\":60:951  contract RomanToInt {... */\n  mstore(0x40, 0x80)\n  callvalue\n  dup1\n  iszero\n  tag_1\n  jumpi\n  revert(0x00, 0x00)\ntag_1:\n  pop\n  dataSize(sub_0)\n  dup1\n  dataOffset(sub_0)\n  0x00\n  codecopy\n  0x00\n  return\nstop\n\nsub_0: assembly {\n        /* \"task01/roman-to-integer.sol\":60:951  contract RomanToInt {... */\n      mstore(0x40, 0x80)\n      callvalue\n      dup1\n      iszero\n      tag_1\n      jumpi\n      revert(0x00, 0x00)\n    tag_1:\n      pop\n      jumpi(tag_2, lt(calldatasize, 0x04))\n      shr(0xe0, calldataload(0x00))\n      dup1\n      0xcb159dfe\n      eq\n      tag_3\n      jumpi\n    tag_2:\n      revert(0x00, 0x00)\n        /* \"task01/roman-to-integer.sol\":93:587  function romanToInt(string memory roman) public pure returns (uint256 i){... */\n    tag_3:\n      tag_4\n      0x04\n      dup1\n      calldatasize\n      sub\n      dup2\n      add\n      swap1\n      tag_5\n      swap2\n      swap1\n      tag_6\n      jump\t// in\n    tag_5:\n      tag_7\n      jump\t// in\n    tag_4:\n      mload(0x40)\n      tag_8\n      swap2\n      swap1\n      tag_9\n      jump\t// in\n    tag_8:\n      mload(0x40)\n      dup1\n      swap2\n      sub\n      swap1\n      return\n    tag_7:\n        /* \"task01/roman-to-integer.sol\":155:164  uint256 i */\n      0x00\n        /* \"task01/roman-to-integer.sol\":176:190  bytes memory b */\n      0x00\n        /* \"task01/roman-to-integer.sol\":199:204  roman */\n      dup3\n        /* \"task01/roman-to-integer.sol\":176:205  bytes memory b = bytes(roman) */\n      swap1\n      pop\n        /* \"task01/roman-to-integer.sol\":216:229  uint256 total */\n      0x00\n        /* \"task01/roman-to-integer.sol\":232:233  0 */\n      0x00\n        /* \"task01/roman-to-integer.sol\":216:233  uint256 total = 0 */\n      swap1\n      pop\n        /* \"task01/roman-to-integer.sol\":244:260  uint256 preValue */\n      0x00\n        /* \"task01/roman-to-integer.sol\":263:264  0 */\n      0x00\n        /* \"task01/roman-to-integer.sol\":244:264  uint256 preValue = 0 */\n      swap1\n      pop\n        /* \"task01/roman-to-integer.sol\":286:287  b */\n      dup3\n        /* \"task01/roman-to-integer.sol\":286:294  b.length */\n      mload\n        /* \"task01/roman-to-integer.sol\":282:294  i = b.length */\n      swap4\n      pop\n        /* \"task01/roman-to-integer.sol\":277:557  for (i = b.length; i > 0; i--){... */\n    tag_11:\n        /* \"task01/roman-to-integer.sol\":300:301  0 */\n      0x00\n        /* \"task01/roman-to-integer.sol\":296:297  i */\n      dup5\n        /* \"task01/roman-to-integer.sol\":296:301  i > 0 */\n      gt\n        /* \"task01/roman-to-integer.sol\":277:557  for (i = b.length; i > 0; i--){... */\n      iszero\n      tag_12\n      jumpi\n        /* \"task01/roman-to-integer.sol\":324:337  uint256 value */\n      0x00\n        /* \"task01/roman-to-integer.sol\":340:356  _valueOf(b[i-1]) */\n      tag_14\n        /* \"task01/roman-to-integer.sol\":349:350  b */\n      dup5\n        /* \"task01/roman-to-integer.sol\":353:354  1 */\n      0x01\n        /* \"task01/roman-to-integer.sol\":351:352  i */\n      dup8\n        /* \"task01/roman-to-integer.sol\":351:354  i-1 */\n      tag_15\n      swap2\n      swap1\n      tag_16\n      jump\t// in\n    tag_15:\n        /* \"task01/roman-to-integer.sol\":349:355  b[i-1] */\n      dup2\n      mload\n      dup2\n      lt\n      tag_17\n      jumpi\n      tag_18\n      tag_19\n      jump\t// in\n    tag_18:\n    tag_17:\n      0x20\n      add\n      add\n      mload\n      0xf8\n      shr\n      0xf8\n      shl\n        /* \"task01/roman-to-integer.sol\":340:348  _valueOf */\n      tag_20\n        /* \"task01/roman-to-integer.sol\":340:356  _valueOf(b[i-1]) */\n      jump\t// in\n    tag_14:\n        /* \"task01/roman-to-integer.sol\":324:356  uint256 value = _valueOf(b[i-1]) */\n      swap1\n      pop\n        /* \"task01/roman-to-integer.sol\":384:392  preValue */\n      dup2\n        /* \"task01/roman-to-integer.sol\":376:381  value */\n      dup2\n        /* \"task01/roman-to-integer.sol\":376:392  value < preValue */\n      lt\n        /* \"task01/roman-to-integer.sol\":373:515  if(value < preValue){... */\n      iszero\n      tag_21\n      jumpi\n        /* \"task01/roman-to-integer.sol\":421:426  value */\n      dup1\n        /* \"task01/roman-to-integer.sol\":412:426  total -= value */\n      dup4\n      tag_22\n      swap2\n      swap1\n      tag_16\n      jump\t// in\n    tag_22:\n      swap3\n      pop\n        /* \"task01/roman-to-integer.sol\":373:515  if(value < preValue){... */\n      jump(tag_23)\n    tag_21:\n        /* \"task01/roman-to-integer.sol\":476:481  value */\n      dup1\n        /* \"task01/roman-to-integer.sol\":467:481  total += value */\n      dup4\n      tag_24\n      swap2\n      swap1\n      tag_25\n      jump\t// in\n    tag_24:\n      swap3\n      pop\n        /* \"task01/roman-to-integer.sol\":373:515  if(value < preValue){... */\n    tag_23:\n        /* \"task01/roman-to-integer.sol\":540:545  value */\n      dup1\n        /* \"task01/roman-to-integer.sol\":529:545  preValue = value */\n      swap2\n      pop\n        /* \"task01/roman-to-integer.sol\":307:557  {... */\n      pop\n        /* \"task01/roman-to-integer.sol\":303:306  i-- */\n      dup4\n      dup1\n      tag_26\n      swap1\n      tag_27\n      jump\t// in\n    tag_26:\n      swap5\n      pop\n      pop\n        /* \"task01/roman-to-integer.sol\":277:557  for (i = b.length; i > 0; i--){... */\n      jump(tag_11)\n    tag_12:\n        /* \"task01/roman-to-integer.sol\":574:579  total */\n      dup2\n        /* \"task01/roman-to-integer.sol\":567:579  return total */\n      swap4\n      pop\n      pop\n      pop\n      pop\n        /* \"task01/roman-to-integer.sol\":93:587  function romanToInt(string memory roman) public pure returns (uint256 i){... */\n      swap2\n      swap1\n      pop\n      jump\t// out\n        /* \"task01/roman-to-integer.sol\":596:946  function _valueOf(bytes1 c) internal pure returns (uint256) {... */\n    tag_20:\n        /* \"task01/roman-to-integer.sol\":647:654  uint256 */\n      0x00\n        /* \"task01/roman-to-integer.sol\":671:679  c == \"I\" */\n      0x4900000000000000000000000000000000000000000000000000000000000000\n        /* \"task01/roman-to-integer.sol\":671:672  c */\n      dup3\n        /* \"task01/roman-to-integer.sol\":671:679  c == \"I\" */\n      not(0xffffffffffffffffffffffffffffffffffffffffffffffffffffffffffffff)\n      and\n      sub\n        /* \"task01/roman-to-integer.sol\":667:689  if (c == \"I\") return 1 */\n      tag_29\n      jumpi\n        /* \"task01/roman-to-integer.sol\":688:689  1 */\n      0x01\n        /* \"task01/roman-to-integer.sol\":681:689  return 1 */\n      swap1\n      pop\n      jump(tag_28)\n        /* \"task01/roman-to-integer.sol\":667:689  if (c == \"I\") return 1 */\n    tag_29:\n        /* \"task01/roman-to-integer.sol\":704:712  c == \"V\" */\n      0x5600000000000000000000000000000000000000000000000000000000000000\n        /* \"task01/roman-to-integer.sol\":704:705  c */\n      dup3\n        /* \"task01/roman-to-integer.sol\":704:712  c == \"V\" */\n      not(0xffffffffffffffffffffffffffffffffffffffffffffffffffffffffffffff)\n      and\n      sub\n        /* \"task01/roman-to-integer.sol\":700:722  if (c == \"V\") return 5 */\n      tag_30\n      jumpi\n        /* \"task01/roman-to-integer.sol\":721:722  5 */\n      0x05\n        /* \"task01/roman-to-integer.sol\":714:722  return 5 */\n      swap1\n      pop\n      jump(tag_28)\n        /* \"task01/roman-to-integer.sol\":700:722  if (c == \"V\") return 5 */\n    tag_30:\n        /* \"task01/roman-to-integer.sol\":737:745  c == \"X\" */\n      0x5800000000000000000000000000000000000000000000000000000000000000\n        /* \"task01/roman-to-integer.sol\":737:738  c */\n      dup3\n        /* \"task01/roman-to-integer.sol\":737:745  c == \"X\" */\n      not(0xffffffffffffffffffffffffffffffffffffffffffffffffffffffffffffff)\n      and\n      sub\n        /* \"task01/roman-to-integer.sol\":733:756  if (c == \"X\") return 10 */\n      tag_31\n      jumpi\n        /* \"task01/roman-to-integer.sol\":754:756  10 */\n      0x0a\n        /* \"task01/roman-to-integer.sol\":747:756  return 10 */\n      swap1\n      pop\n      jump(tag_28)\n        /* \"task01/roman-to-integer.sol\":733:756  if (c == \"X\") return 10 */\n    tag_31:\n        /* \"task01/roman-to-integer.sol\":771:779  c == \"L\" */\n      0x4c00000000000000000000000000000000000000000000000000000000000000\n        /* \"task01/roman-to-integer.sol\":771:772  c */\n      dup3\n        /* \"task01/roman-to-integer.sol\":771:779  c == \"L\" */\n      not(0xffffffffffffffffffffffffffffffffffffffffffffffffffffffffffffff)\n      and\n      sub\n        /* \"task01/roman-to-integer.sol\":767:790  if (c == \"L\") return 50 */\n      tag_32\n      jumpi\n        /* \"task01/roman-to-integer.sol\":788:790  50 */\n      0x32\n        /* \"task01/roman-to-integer.sol\":781:790  return 50 */\n      swap1\n      pop\n      jump(tag_28)\n        /* \"task01/roman-to-integer.sol\":767:790  if (c == \"L\") return 50 */\n    tag_32:\n        /* \"task01/roman-to-integer.sol\":805:813  c == \"C\" */\n      0x4300000000000000000000000000000000000000000000000000000000000000\n        /* \"task01/roman-to-integer.sol\":805:806  c */\n      dup3\n        /* \"task01/roman-to-integer.sol\":805:813  c == \"C\" */\n      not(0xffffffffffffffffffffffffffffffffffffffffffffffffffffffffffffff)\n      and\n      sub\n        /* \"task01/roman-to-integer.sol\":801:825  if (c == \"C\") return 100 */\n      tag_33\n      jumpi\n        /* \"task01/roman-to-integer.sol\":822:825  100 */\n      0x64\n        /* \"task01/roman-to-integer.sol\":815:825  return 100 */\n      swap1\n      pop\n      jump(tag_28)\n        /* \"task01/roman-to-integer.sol\":801:825  if (c == \"C\") return 100 */\n    tag_33:\n        /* \"task01/roman-to-integer.sol\":840:848  c == \"D\" */\n      0x4400000000000000000000000000000000000000000000000000000000000000\n        /* \"task01/roman-to-integer.sol\":840:841  c */\n      dup3\n        /* \"task01/roman-to-integer.sol\":840:848  c == \"D\" */\n      not(0xffffffffffffffffffffffffffffffffffffffffffffffffffffffffffffff)\n      and\n      sub\n        /* \"task01/roman-to-integer.sol\":836:860  if (c == \"D\") return 500 */\n      tag_34\n      jumpi\n        /* \"task01/roman-to-integer.sol\":857:860  500 */\n      0x01f4\n        /* \"task01/roman-to-integer.sol\":850:860  return 500 */\n      swap1\n      pop\n      jump(tag_28)\n        /* \"task01/roman-to-integer.sol\":836:860  if (c == \"D\") return 500 */\n    tag_34:\n        /* \"task01/roman-to-integer.sol\":875:883  c == \"M\" */\n      0x4d00000000000000000000000000000000000000000000000000000000000000\n        /* \"task01/roman-to-integer.sol\":875:876  c */\n      dup3\n        /* \"task01/roman-to-integer.sol\":875:883  c == \"M\" */\n      not(0xffffffffffffffffffffffffffffffffffffffffffffffffffffffffffffff)\n      and\n      sub\n        /* \"task01/roman-to-integer.sol\":871:896  if (c == \"M\") return 1000 */\n      tag_35\n      jumpi\n        /* \"task01/roman-to-integer.sol\":892:896  1000 */\n      0x03e8\n        /* \"task01/roman-to-integer.sol\":885:896  return 1000 */\n      swap1\n      pop\n      jump(tag_28)\n        /* \"task01/roman-to-integer.sol\":871:896  if (c == \"M\") return 1000 */\n    tag_35:\n        /* \"task01/roman-to-integer.sol\":907:938  revert(\"Invalid Roman numeral\") */\n      mload(0x40)\n      0x08c379a000000000000000000000000000000000000000000000000000000000\n      dup2\n      mstore\n      0x04\n      add\n      tag_36\n      swap1\n      tag_37\n      jump\t// in\n    tag_36:\n      mload(0x40)\n      dup1\n      swap2\n      sub\n      swap1\n      revert\n        /* \"task01/roman-to-integer.sol\":596:946  function _valueOf(bytes1 c) internal pure returns (uint256) {... */\n    tag_28:\n      swap2\n      swap1\n      pop\n      jump\t// out\n        /* \"#utility.yul\":7:82   */\n    tag_38:\n        /* \"#utility.yul\":40:46   */\n      0x00\n        /* \"#utility.yul\":73:75   */\n      0x40\n        /* \"#utility.yul\":67:76   */\n      mload\n        /* \"#utility.yul\":57:76   */\n      swap1\n      pop\n        /* \"#utility.yul\":7:82   */\n      swap1\n      jump\t// out\n        /* \"#utility.yul\":88:205   */\n    tag_39:\n        /* \"#utility.yul\":197:198   */\n      0x00\n        /* \"#utility.yul\":194:195   */\n      0x00\n        /* \"#utility.yul\":187:199   */\n      revert\n        /* \"#utility.yul\":211:328   */\n    tag_40:\n        /* \"#utility.yul\":320:321   */\n      0x00\n        /* \"#utility.yul\":317:318   */\n      0x00\n        /* \"#utility.yul\":310:322   */\n      revert\n        /* \"#utility.yul\":334:451   */\n    tag_41:\n        /* \"#utility.yul\":443:444   */\n      0x00\n        /* \"#utility.yul\":440:441   */\n      0x00\n        /* \"#utility.yul\":433:445   */\n      revert\n        /* \"#utility.yul\":457:574   */\n    tag_42:\n        /* \"#utility.yul\":566:567   */\n      0x00\n        /* \"#utility.yul\":563:564   */\n      0x00\n        /* \"#utility.yul\":556:568   */\n      revert\n        /* \"#utility.yul\":580:682   */\n    tag_43:\n        /* \"#utility.yul\":621:627   */\n      0x00\n        /* \"#utility.yul\":672:674   */\n      0x1f\n        /* \"#utility.yul\":668:675   */\n      not\n        /* \"#utility.yul\":663:665   */\n      0x1f\n        /* \"#utility.yul\":656:661   */\n      dup4\n        /* \"#utility.yul\":652:666   */\n      add\n        /* \"#utility.yul\":648:676   */\n      and\n        /* \"#utility.yul\":638:676   */\n      swap1\n      pop\n        /* \"#utility.yul\":580:682   */\n      swap2\n      swap1\n      pop\n      jump\t// out\n        /* \"#utility.yul\":688:868   */\n    tag_44:\n        /* \"#utility.yul\":736:813   */\n      0x4e487b7100000000000000000000000000000000000000000000000000000000\n        /* \"#utility.yul\":733:734   */\n      0x00\n        /* \"#utility.yul\":726:814   */\n      mstore\n        /* \"#utility.yul\":833:837   */\n      0x41\n        /* \"#utility.yul\":830:831   */\n      0x04\n        /* \"#utility.yul\":823:838   */\n      mstore\n        /* \"#utility.yul\":857:861   */\n      0x24\n        /* \"#utility.yul\":854:855   */\n      0x00\n        /* \"#utility.yul\":847:862   */\n      revert\n        /* \"#utility.yul\":874:1155   */\n    tag_45:\n        /* \"#utility.yul\":957:984   */\n      tag_66\n        /* \"#utility.yul\":979:983   */\n      dup3\n        /* \"#utility.yul\":957:984   */\n      tag_43\n      jump\t// in\n    tag_66:\n        /* \"#utility.yul\":949:955   */\n      dup2\n        /* \"#utility.yul\":945:985   */\n      add\n        /* \"#utility.yul\":1087:1093   */\n      dup2\n        /* \"#utility.yul\":1075:1085   */\n      dup2\n        /* \"#utility.yul\":1072:1094   */\n      lt\n        /* \"#utility.yul\":1051:1069   */\n      0xffffffffffffffff\n        /* \"#utility.yul\":1039:1049   */\n      dup3\n        /* \"#utility.yul\":1036:1070   */\n      gt\n        /* \"#utility.yul\":1033:1095   */\n      or\n        /* \"#utility.yul\":1030:1118   */\n      iszero\n      tag_67\n      jumpi\n        /* \"#utility.yul\":1098:1116   */\n      tag_68\n      tag_44\n      jump\t// in\n    tag_68:\n        /* \"#utility.yul\":1030:1118   */\n    tag_67:\n        /* \"#utility.yul\":1138:1148   */\n      dup1\n        /* \"#utility.yul\":1134:1136   */\n      0x40\n        /* \"#utility.yul\":1127:1149   */\n      mstore\n        /* \"#utility.yul\":917:1155   */\n      pop\n        /* \"#utility.yul\":874:1155   */\n      pop\n      pop\n      jump\t// out\n        /* \"#utility.yul\":1161:1290   */\n    tag_46:\n        /* \"#utility.yul\":1195:1201   */\n      0x00\n        /* \"#utility.yul\":1222:1242   */\n      tag_70\n      tag_38\n      jump\t// in\n    tag_70:\n        /* \"#utility.yul\":1212:1242   */\n      swap1\n      pop\n        /* \"#utility.yul\":1251:1284   */\n      tag_71\n        /* \"#utility.yul\":1279:1283   */\n      dup3\n        /* \"#utility.yul\":1271:1277   */\n      dup3\n        /* \"#utility.yul\":1251:1284   */\n      tag_45\n      jump\t// in\n    tag_71:\n        /* \"#utility.yul\":1161:1290   */\n      swap2\n      swap1\n      pop\n      jump\t// out\n        /* \"#utility.yul\":1296:1604   */\n    tag_47:\n        /* \"#utility.yul\":1358:1362   */\n      0x00\n        /* \"#utility.yul\":1448:1466   */\n      0xffffffffffffffff\n        /* \"#utility.yul\":1440:1446   */\n      dup3\n        /* \"#utility.yul\":1437:1467   */\n      gt\n        /* \"#utility.yul\":1434:1490   */\n      iszero\n      tag_73\n      jumpi\n        /* \"#utility.yul\":1470:1488   */\n      tag_74\n      tag_44\n      jump\t// in\n    tag_74:\n        /* \"#utility.yul\":1434:1490   */\n    tag_73:\n        /* \"#utility.yul\":1508:1537   */\n      tag_75\n        /* \"#utility.yul\":1530:1536   */\n      dup3\n        /* \"#utility.yul\":1508:1537   */\n      tag_43\n      jump\t// in\n    tag_75:\n        /* \"#utility.yul\":1500:1537   */\n      swap1\n      pop\n        /* \"#utility.yul\":1592:1596   */\n      0x20\n        /* \"#utility.yul\":1586:1590   */\n      dup2\n        /* \"#utility.yul\":1582:1597   */\n      add\n        /* \"#utility.yul\":1574:1597   */\n      swap1\n      pop\n        /* \"#utility.yul\":1296:1604   */\n      swap2\n      swap1\n      pop\n      jump\t// out\n        /* \"#utility.yul\":1610:1758   */\n    tag_48:\n        /* \"#utility.yul\":1708:1714   */\n      dup3\n        /* \"#utility.yul\":1703:1706   */\n      dup2\n        /* \"#utility.yul\":1698:1701   */\n      dup4\n        /* \"#utility.yul\":1685:1715   */\n      calldatacopy\n        /* \"#utility.yul\":1749:1750   */\n      0x00\n        /* \"#utility.yul\":1740:1746   */\n      dup4\n        /* \"#utility.yul\":1735:1738   */\n      dup4\n        /* \"#utility.yul\":1731:1747   */\n      add\n        /* \"#utility.yul\":1724:1751   */\n      mstore\n        /* \"#utility.yul\":1610:1758   */\n      pop\n      pop\n      pop\n      jump\t// out\n        /* \"#utility.yul\":1764:2189   */\n    tag_49:\n        /* \"#utility.yul\":1842:1847   */\n      0x00\n        /* \"#utility.yul\":1867:1933   */\n      tag_78\n        /* \"#utility.yul\":1883:1932   */\n      tag_79\n        /* \"#utility.yul\":1925:1931   */\n      dup5\n        /* \"#utility.yul\":1883:1932   */\n      tag_47\n      jump\t// in\n    tag_79:\n        /* \"#utility.yul\":1867:1933   */\n      tag_46\n      jump\t// in\n    tag_78:\n        /* \"#utility.yul\":1858:1933   */\n      swap1\n      pop\n        /* \"#utility.yul\":1956:1962   */\n      dup3\n        /* \"#utility.yul\":1949:1954   */\n      dup2\n        /* \"#utility.yul\":1942:1963   */\n      mstore\n        /* \"#utility.yul\":1994:1998   */\n      0x20\n        /* \"#utility.yul\":1987:1992   */\n      dup2\n        /* \"#utility.yul\":1983:1999   */\n      add\n        /* \"#utility.yul\":2032:2035   */\n      dup5\n        /* \"#utility.yul\":2023:2029   */\n      dup5\n        /* \"#utility.yul\":2018:2021   */\n      dup5\n        /* \"#utility.yul\":2014:2030   */\n      add\n        /* \"#utility.yul\":2011:2036   */\n      gt\n        /* \"#utility.yul\":2008:2120   */\n      iszero\n      tag_80\n      jumpi\n        /* \"#utility.yul\":2039:2118   */\n      tag_81\n      tag_42\n      jump\t// in\n    tag_81:\n        /* \"#utility.yul\":2008:2120   */\n    tag_80:\n        /* \"#utility.yul\":2129:2183   */\n      tag_82\n        /* \"#utility.yul\":2176:2182   */\n      dup5\n        /* \"#utility.yul\":2171:2174   */\n      dup3\n        /* \"#utility.yul\":2166:2169   */\n      dup6\n        /* \"#utility.yul\":2129:2183   */\n      tag_48\n      jump\t// in\n    tag_82:\n        /* \"#utility.yul\":1848:2189   */\n      pop\n        /* \"#utility.yul\":1764:2189   */\n      swap4\n      swap3\n      pop\n      pop\n      pop\n      jump\t// out\n        /* \"#utility.yul\":2209:2549   */\n    tag_50:\n        /* \"#utility.yul\":2265:2270   */\n      0x00\n        /* \"#utility.yul\":2314:2317   */\n      dup3\n        /* \"#utility.yul\":2307:2311   */\n      0x1f\n        /* \"#utility.yul\":2299:2305   */\n      dup4\n        /* \"#utility.yul\":2295:2312   */\n      add\n        /* \"#utility.yul\":2291:2318   */\n      slt\n        /* \"#utility.yul\":2281:2403   */\n      tag_84\n      jumpi\n        /* \"#utility.yul\":2322:2401   */\n      tag_85\n      tag_41\n      jump\t// in\n    tag_85:\n        /* \"#utility.yul\":2281:2403   */\n    tag_84:\n        /* \"#utility.yul\":2439:2445   */\n      dup2\n        /* \"#utility.yul\":2426:2446   */\n      calldataload\n        /* \"#utility.yul\":2464:2543   */\n      tag_86\n        /* \"#utility.yul\":2539:2542   */\n      dup5\n        /* \"#utility.yul\":2531:2537   */\n      dup3\n        /* \"#utility.yul\":2524:2528   */\n      0x20\n        /* \"#utility.yul\":2516:2522   */\n      dup7\n        /* \"#utility.yul\":2512:2529   */\n      add\n        /* \"#utility.yul\":2464:2543   */\n      tag_49\n      jump\t// in\n    tag_86:\n        /* \"#utility.yul\":2455:2543   */\n      swap2\n      pop\n        /* \"#utility.yul\":2271:2549   */\n      pop\n        /* \"#utility.yul\":2209:2549   */\n      swap3\n      swap2\n      pop\n      pop\n      jump\t// out\n        /* \"#utility.yul\":2555:3064   */\n    tag_6:\n        /* \"#utility.yul\":2624:2630   */\n      0x00\n        /* \"#utility.yul\":2673:2675   */\n      0x20\n        /* \"#utility.yul\":2661:2670   */\n      dup3\n        /* \"#utility.yul\":2652:2659   */\n      dup5\n        /* \"#utility.yul\":2648:2671   */\n      sub\n        /* \"#utility.yul\":2644:2676   */\n      slt\n        /* \"#utility.yul\":2641:2760   */\n      iszero\n      tag_88\n      jumpi\n        /* \"#utility.yul\":2679:2758   */\n      tag_89\n      tag_39\n      jump\t// in\n    tag_89:\n        /* \"#utility.yul\":2641:2760   */\n    tag_88:\n        /* \"#utility.yul\":2827:2828   */\n      0x00\n        /* \"#utility.yul\":2816:2825   */\n      dup3\n        /* \"#utility.yul\":2812:2829   */\n      add\n        /* \"#utility.yul\":2799:2830   */\n      calldataload\n        /* \"#utility.yul\":2857:2875   */\n      0xffffffffffffffff\n        /* \"#utility.yul\":2849:2855   */\n      dup2\n        /* \"#utility.yul\":2846:2876   */\n      gt\n        /* \"#utility.yul\":2843:2960   */\n      iszero\n      tag_90\n      jumpi\n        /* \"#utility.yul\":2879:2958   */\n      tag_91\n      tag_40\n      jump\t// in\n    tag_91:\n        /* \"#utility.yul\":2843:2960   */\n    tag_90:\n        /* \"#utility.yul\":2984:3047   */\n      tag_92\n        /* \"#utility.yul\":3039:3046   */\n      dup5\n        /* \"#utility.yul\":3030:3036   */\n      dup3\n        /* \"#utility.yul\":3019:3028   */\n      dup6\n        /* \"#utility.yul\":3015:3037   */\n      add\n        /* \"#utility.yul\":2984:3047   */\n      tag_50\n      jump\t// in\n    tag_92:\n        /* \"#utility.yul\":2974:3047   */\n      swap2\n      pop\n        /* \"#utility.yul\":2770:3057   */\n      pop\n        /* \"#utility.yul\":2555:3064   */\n      swap3\n      swap2\n      pop\n      pop\n      jump\t// out\n        /* \"#utility.yul\":3070:3147   */\n    tag_51:\n        /* \"#utility.yul\":3107:3114   */\n      0x00\n        /* \"#utility.yul\":3136:3141   */\n      dup2\n        /* \"#utility.yul\":3125:3141   */\n      swap1\n      pop\n        /* \"#utility.yul\":3070:3147   */\n      swap2\n      swap1\n      pop\n      jump\t// out\n        /* \"#utility.yul\":3153:3271   */\n    tag_52:\n        /* \"#utility.yul\":3240:3264   */\n      tag_95\n        /* \"#utility.yul\":3258:3263   */\n      dup2\n        /* \"#utility.yul\":3240:3264   */\n      tag_51\n      jump\t// in\n    tag_95:\n        /* \"#utility.yul\":3235:3238   */\n      dup3\n        /* \"#utility.yul\":3228:3265   */\n      mstore\n        /* \"#utility.yul\":3153:3271   */\n      pop\n      pop\n      jump\t// out\n        /* \"#utility.yul\":3277:3499   */\n    tag_9:\n        /* \"#utility.yul\":3370:3374   */\n      0x00\n        /* \"#utility.yul\":3408:3410   */\n      0x20\n        /* \"#utility.yul\":3397:3406   */\n      dup3\n        /* \"#utility.yul\":3393:3411   */\n      add\n        /* \"#utility.yul\":3385:3411   */\n      swap1\n      pop\n        /* \"#utility.yul\":3421:3492   */\n      tag_97\n        /* \"#utility.yul\":3489:3490   */\n      0x00\n        /* \"#utility.yul\":3478:3487   */\n      dup4\n        /* \"#utility.yul\":3474:3491   */\n      add\n        /* \"#utility.yul\":3465:3471   */\n      dup5\n        /* \"#utility.yul\":3421:3492   */\n      tag_52\n      jump\t// in\n    tag_97:\n        /* \"#utility.yul\":3277:3499   */\n      swap3\n      swap2\n      pop\n      pop\n      jump\t// out\n        /* \"#utility.yul\":3505:3685   */\n    tag_53:\n        /* \"#utility.yul\":3553:3630   */\n      0x4e487b7100000000000000000000000000000000000000000000000000000000\n        /* \"#utility.yul\":3550:3551   */\n      0x00\n        /* \"#utility.yul\":3543:3631   */\n      mstore\n        /* \"#utility.yul\":3650:3654   */\n      0x11\n        /* \"#utility.yul\":3647:3648   */\n      0x04\n        /* \"#utility.yul\":3640:3655   */\n      mstore\n        /* \"#utility.yul\":3674:3678   */\n      0x24\n        /* \"#utility.yul\":3671:3672   */\n      0x00\n        /* \"#utility.yul\":3664:3679   */\n      revert\n        /* \"#utility.yul\":3691:3885   */\n    tag_16:\n        /* \"#utility.yul\":3731:3735   */\n      0x00\n        /* \"#utility.yul\":3751:3771   */\n      tag_100\n        /* \"#utility.yul\":3769:3770   */\n      dup3\n        /* \"#utility.yul\":3751:3771   */\n      tag_51\n      jump\t// in\n    tag_100:\n        /* \"#utility.yul\":3746:3771   */\n      swap2\n      pop\n        /* \"#utility.yul\":3785:3805   */\n      tag_101\n        /* \"#utility.yul\":3803:3804   */\n      dup4\n        /* \"#utility.yul\":3785:3805   */\n      tag_51\n      jump\t// in\n    tag_101:\n        /* \"#utility.yul\":3780:3805   */\n      swap3\n      pop\n        /* \"#utility.yul\":3829:3830   */\n      dup3\n        /* \"#utility.yul\":3826:3827   */\n      dup3\n        /* \"#utility.yul\":3822:3831   */\n      sub\n        /* \"#utility.yul\":3814:3831   */\n      swap1\n      pop\n        /* \"#utility.yul\":3853:3854   */\n      dup2\n        /* \"#utility.yul\":3847:3851   */\n      dup2\n        /* \"#utility.yul\":3844:3855   */\n      gt\n        /* \"#utility.yul\":3841:3878   */\n      iszero\n      tag_102\n      jumpi\n        /* \"#utility.yul\":3858:3876   */\n      tag_103\n      tag_53\n      jump\t// in\n    tag_103:\n        /* \"#utility.yul\":3841:3878   */\n    tag_102:\n        /* \"#utility.yul\":3691:3885   */\n      swap3\n      swap2\n      pop\n      pop\n      jump\t// out\n        /* \"#utility.yul\":3891:4071   */\n    tag_19:\n        /* \"#utility.yul\":3939:4016   */\n      0x4e487b7100000000000000000000000000000000000000000000000000000000\n        /* \"#utility.yul\":3936:3937   */\n      0x00\n        /* \"#utility.yul\":3929:4017   */\n      mstore\n        /* \"#utility.yul\":4036:4040   */\n      0x32\n        /* \"#utility.yul\":4033:4034   */\n      0x04\n        /* \"#utility.yul\":4026:4041   */\n      mstore\n        /* \"#utility.yul\":4060:4064   */\n      0x24\n        /* \"#utility.yul\":4057:4058   */\n      0x00\n        /* \"#utility.yul\":4050:4065   */\n      revert\n        /* \"#utility.yul\":4077:4268   */\n    tag_25:\n        /* \"#utility.yul\":4117:4120   */\n      0x00\n        /* \"#utility.yul\":4136:4156   */\n      tag_106\n        /* \"#utility.yul\":4154:4155   */\n      dup3\n        /* \"#utility.yul\":4136:4156   */\n      tag_51\n      jump\t// in\n    tag_106:\n        /* \"#utility.yul\":4131:4156   */\n      swap2\n      pop\n        /* \"#utility.yul\":4170:4190   */\n      tag_107\n        /* \"#utility.yul\":4188:4189   */\n      dup4\n        /* \"#utility.yul\":4170:4190   */\n      tag_51\n      jump\t// in\n    tag_107:\n        /* \"#utility.yul\":4165:4190   */\n      swap3\n      pop\n        /* \"#utility.yul\":4213:4214   */\n      dup3\n        /* \"#utility.yul\":4210:4211   */\n      dup3\n        /* \"#utility.yul\":4206:4215   */\n      add\n        /* \"#utility.yul\":4199:4215   */\n      swap1\n      pop\n        /* \"#utility.yul\":4234:4237   */\n      dup1\n        /* \"#utility.yul\":4231:4232   */\n      dup3\n        /* \"#utility.yul\":4228:4238   */\n      gt\n        /* \"#utility.yul\":4225:4261   */\n      iszero\n      tag_108\n      jumpi\n        /* \"#utility.yul\":4241:4259   */\n      tag_109\n      tag_53\n      jump\t// in\n    tag_109:\n        /* \"#utility.yul\":4225:4261   */\n    tag_108:\n        /* \"#utility.yul\":4077:4268   */\n      swap3\n      swap2\n      pop\n      pop\n      jump\t// out\n        /* \"#utility.yul\":4274:4445   */\n    tag_27:\n        /* \"#utility.yul\":4313:4316   */\n      0x00\n        /* \"#utility.yul\":4336:4360   */\n      tag_111\n        /* \"#utility.yul\":4354:4359   */\n      dup3\n        /* \"#utility.yul\":4336:4360   */\n      tag_51\n      jump\t// in\n    tag_111:\n        /* \"#utility.yul\":4327:4360   */\n      swap2\n      pop\n        /* \"#utility.yul\":4382:4386   */\n      0x00\n        /* \"#utility.yul\":4375:4380   */\n      dup3\n        /* \"#utility.yul\":4372:4387   */\n      sub\n        /* \"#utility.yul\":4369:4410   */\n      tag_112\n      jumpi\n        /* \"#utility.yul\":4390:4408   */\n      tag_113\n      tag_53\n      jump\t// in\n    tag_113:\n        /* \"#utility.yul\":4369:4410   */\n    tag_112:\n        /* \"#utility.yul\":4437:4438   */\n      0x01\n        /* \"#utility.yul\":4430:4435   */\n      dup3\n        /* \"#utility.yul\":4426:4439   */\n      sub\n        /* \"#utility.yul\":4419:4439   */\n      swap1\n      pop\n        /* \"#utility.yul\":4274:4445   */\n      swap2\n      swap1\n      pop\n      jump\t// out\n        /* \"#utility.yul\":4451:4620   */\n    tag_54:\n        /* \"#utility.yul\":4535:4546   */\n      0x00\n        /* \"#utility.yul\":4569:4575   */\n      dup3\n        /* \"#utility.yul\":4564:4567   */\n      dup3\n        /* \"#utility.yul\":4557:4576   */\n      mstore\n        /* \"#utility.yul\":4609:4613   */\n      0x20\n        /* \"#utility.yul\":4604:4607   */\n      dup3\n        /* \"#utility.yul\":4600:4614   */\n      add\n        /* \"#utility.yul\":4585:4614   */\n      swap1\n      pop\n        /* \"#utility.yul\":4451:4620   */\n      swap3\n      swap2\n      pop\n      pop\n      jump\t// out\n        /* \"#utility.yul\":4626:4797   */\n    tag_55:\n        /* \"#utility.yul\":4766:4789   */\n      0x496e76616c696420526f6d616e206e756d6572616c0000000000000000000000\n        /* \"#utility.yul\":4762:4763   */\n      0x00\n        /* \"#utility.yul\":4754:4760   */\n      dup3\n        /* \"#utility.yul\":4750:4764   */\n      add\n        /* \"#utility.yul\":4743:4790   */\n      mstore\n        /* \"#utility.yul\":4626:4797   */\n      pop\n      jump\t// out\n        /* \"#utility.yul\":4803:5169   */\n    tag_56:\n        /* \"#utility.yul\":4945:4948   */\n      0x00\n        /* \"#utility.yul\":4966:5033   */\n      tag_117\n        /* \"#utility.yul\":5030:5032   */\n      0x15\n        /* \"#utility.yul\":5025:5028   */\n      dup4\n        /* \"#utility.yul\":4966:5033   */\n      tag_54\n      jump\t// in\n    tag_117:\n        /* \"#utility.yul\":4959:5033   */\n      swap2\n      pop\n        /* \"#utility.yul\":5042:5135   */\n      tag_118\n        /* \"#utility.yul\":5131:5134   */\n      dup3\n        /* \"#utility.yul\":5042:5135   */\n      tag_55\n      jump\t// in\n    tag_118:\n        /* \"#utility.yul\":5160:5162   */\n      0x20\n        /* \"#utility.yul\":5155:5158   */\n      dup3\n        /* \"#utility.yul\":5151:5163   */\n      add\n        /* \"#utility.yul\":5144:5163   */\n      swap1\n      pop\n        /* \"#utility.yul\":4803:5169   */\n      swap2\n      swap1\n      pop\n      jump\t// out\n        /* \"#utility.yul\":5175:5594   */\n    tag_37:\n        /* \"#utility.yul\":5341:5345   */\n      0x00\n        /* \"#utility.yul\":5379:5381   */\n      0x20\n        /* \"#utility.yul\":5368:5377   */\n      dup3\n        /* \"#utility.yul\":5364:5382   */\n      add\n        /* \"#utility.yul\":5356:5382   */\n      swap1\n      pop\n        /* \"#utility.yul\":5428:5437   */\n      dup2\n        /* \"#utility.yul\":5422:5426   */\n      dup2\n        /* \"#utility.yul\":5418:5438   */\n      sub\n        /* \"#utility.yul\":5414:5415   */\n      0x00\n        /* \"#utility.yul\":5403:5412   */\n      dup4\n        /* \"#utility.yul\":5399:5416   */\n      add\n        /* \"#utility.yul\":5392:5439   */\n      mstore\n        /* \"#utility.yul\":5456:5587   */\n      tag_120\n        /* \"#utility.yul\":5582:5586   */\n      dup2\n        /* \"#utility.yul\":5456:5587   */\n      tag_56\n      jump\t// in\n    tag_120:\n        /* \"#utility.yul\":5448:5587   */\n      swap1\n      pop\n        /* \"#utility.yul\":5175:5594   */\n      swap2\n      swap1\n      pop\n      jump\t// out\n\n    auxdata: 0xa2646970667358221220af17c62b71b0c37c281d96eec8fbb62a5d5b83ab691c2b2658a80ad980e2c39a64736f6c634300081e0033\n}\n",
				"bytecode": {
					"linkReferences": {},
					"object": "6080604052348015600e575f5ffd5b506106d38061001c5f395ff3fe608060405234801561000f575f5ffd5b5060043610610029575f3560e01c8063cb159dfe1461002d575b5f5ffd5b610047600480360381019061004291906104c6565b61005d565b6040516100549190610525565b60405180910390f35b5f5f8290505f5f90505f5f9050825193505b5f8411156100ed575f6100aa84600187610089919061056b565b8151811061009a5761009961059e565b5b602001015160f81c60f81b6100f8565b9050818110156100c75780836100c0919061056b565b92506100d6565b80836100d391906105cb565b92505b8091505083806100e5906105fe565b94505061006f565b819350505050919050565b5f7f4900000000000000000000000000000000000000000000000000000000000000827effffffffffffffffffffffffffffffffffffffffffffffffffffffffffffff19160361014b5760019050610374565b7f5600000000000000000000000000000000000000000000000000000000000000827effffffffffffffffffffffffffffffffffffffffffffffffffffffffffffff19160361019d5760059050610374565b7f5800000000000000000000000000000000000000000000000000000000000000827effffffffffffffffffffffffffffffffffffffffffffffffffffffffffffff1916036101ef57600a9050610374565b7f4c00000000000000000000000000000000000000000000000000000000000000827effffffffffffffffffffffffffffffffffffffffffffffffffffffffffffff1916036102415760329050610374565b7f4300000000000000000000000000000000000000000000000000000000000000827effffffffffffffffffffffffffffffffffffffffffffffffffffffffffffff1916036102935760649050610374565b7f4400000000000000000000000000000000000000000000000000000000000000827effffffffffffffffffffffffffffffffffffffffffffffffffffffffffffff1916036102e6576101f49050610374565b7f4d00000000000000000000000000000000000000000000000000000000000000827effffffffffffffffffffffffffffffffffffffffffffffffffffffffffffff191603610339576103e89050610374565b6040517f08c379a000000000000000000000000000000000000000000000000000000000815260040161036b9061067f565b60405180910390fd5b919050565b5f604051905090565b5f5ffd5b5f5ffd5b5f5ffd5b5f5ffd5b5f601f19601f8301169050919050565b7f4e487b71000000000000000000000000000000000000000000000000000000005f52604160045260245ffd5b6103d882610392565b810181811067ffffffffffffffff821117156103f7576103f66103a2565b5b80604052505050565b5f610409610379565b905061041582826103cf565b919050565b5f67ffffffffffffffff821115610434576104336103a2565b5b61043d82610392565b9050602081019050919050565b828183375f83830152505050565b5f61046a6104658461041a565b610400565b9050828152602081018484840111156104865761048561038e565b5b61049184828561044a565b509392505050565b5f82601f8301126104ad576104ac61038a565b5b81356104bd848260208601610458565b91505092915050565b5f602082840312156104db576104da610382565b5b5f82013567ffffffffffffffff8111156104f8576104f7610386565b5b61050484828501610499565b91505092915050565b5f819050919050565b61051f8161050d565b82525050565b5f6020820190506105385f830184610516565b92915050565b7f4e487b71000000000000000000000000000000000000000000000000000000005f52601160045260245ffd5b5f6105758261050d565b91506105808361050d565b92508282039050818111156105985761059761053e565b5b92915050565b7f4e487b71000000000000000000000000000000000000000000000000000000005f52603260045260245ffd5b5f6105d58261050d565b91506105e08361050d565b92508282019050808211156105f8576105f761053e565b5b92915050565b5f6106088261050d565b91505f820361061a5761061961053e565b5b600182039050919050565b5f82825260208201905092915050565b7f496e76616c696420526f6d616e206e756d6572616c00000000000000000000005f82015250565b5f610669601583610625565b915061067482610635565b602082019050919050565b5f6020820190508181035f8301526106968161065d565b905091905056fea2646970667358221220af17c62b71b0c37c281d96eec8fbb62a5d5b83ab691c2b2658a80ad980e2c39a64736f6c634300081e0033",
					"opcodes": "PUSH1 0x80 PUSH1 0x40 MSTORE CALLVALUE DUP1 ISZERO PUSH1 0xE JUMPI PUSH0 PUSH0 REVERT JUMPDEST POP PUSH2 0x6D3 DUP1 PUSH2 0x1C PUSH0 CODECOPY PUSH0 RETURN INVALID PUSH1 0x80 PUSH1 0x40 MSTORE CALLVALUE DUP1 ISZERO PUSH2 0xF JUMPI PUSH0 PUSH0 REVERT JUMPDEST POP PUSH1 0x4 CALLDATASIZE LT PUSH2 0x29 JUMPI PUSH0 CALLDATALOAD PUSH1 0xE0 SHR DUP1 PUSH4 0xCB159DFE EQ PUSH2 0x2D JUMPI JUMPDEST PUSH0 PUSH0 REVERT JUMPDEST PUSH2 0x47 PUSH1 0x4 DUP1 CALLDATASIZE SUB DUP2 ADD SWAP1 PUSH2 0x42 SWAP2 SWAP1 PUSH2 0x4C6 JUMP JUMPDEST PUSH2 0x5D JUMP JUMPDEST PUSH1 0x40 MLOAD PUSH2 0x54 SWAP2 SWAP1 PUSH2 0x525 JUMP JUMPDEST PUSH1 0x40 MLOAD DUP1 SWAP2 SUB SWAP1 RETURN JUMPDEST PUSH0 PUSH0 DUP3 SWAP1 POP PUSH0 PUSH0 SWAP1 POP PUSH0 PUSH0 SWAP1 POP DUP3 MLOAD SWAP4 POP JUMPDEST PUSH0 DUP5 GT ISZERO PUSH2 0xED JUMPI PUSH0 PUSH2 0xAA DUP5 PUSH1 0x1 DUP8 PUSH2 0x89 SWAP2 SWAP1 PUSH2 0x56B JUMP JUMPDEST DUP2 MLOAD DUP2 LT PUSH2 0x9A JUMPI PUSH2 0x99 PUSH2 0x59E JUMP JUMPDEST JUMPDEST PUSH1 0x20 ADD ADD MLOAD PUSH1 0xF8 SHR PUSH1 0xF8 SHL PUSH2 0xF8 JUMP JUMPDEST SWAP1 POP DUP2 DUP2 LT ISZERO PUSH2 0xC7 JUMPI DUP1 DUP4 PUSH2 0xC0 SWAP2 SWAP1 PUSH2 0x56B JUMP JUMPDEST SWAP3 POP PUSH2 0xD6 JUMP JUMPDEST DUP1 DUP4 PUSH2 0xD3 SWAP2 SWAP1 PUSH2 0x5CB JUMP JUMPDEST SWAP3 POP JUMPDEST DUP1 SWAP2 POP POP DUP4 DUP1 PUSH2 0xE5 SWAP1 PUSH2 0x5FE JUMP JUMPDEST SWAP5 POP POP PUSH2 0x6F JUMP JUMPDEST DUP2 SWAP4 POP POP POP POP SWAP2 SWAP1 POP JUMP JUMPDEST PUSH0 PUSH32 0x4900000000000000000000000000000000000000000000000000000000000000 DUP3 PUSH31 0xFFFFFFFFFFFFFFFFFFFFFFFFFFFFFFFFFFFFFFFFFFFFFFFFFFFFFFFFFFFFFF NOT AND SUB PUSH2 0x14B JUMPI PUSH1 0x1 SWAP1 POP PUSH2 0x374 JUMP JUMPDEST PUSH32 0x5600000000000000000000000000000000000000000000000000000000000000 DUP3 PUSH31 0xFFFFFFFFFFFFFFFFFFFFFFFFFFFFFFFFFFFFFFFFFFFFFFFFFFFFFFFFFFFFFF NOT AND SUB PUSH2 0x19D JUMPI PUSH1 0x5 SWAP1 POP PUSH2 0x374 JUMP JUMPDEST PUSH32 0x5800000000000000000000000000000000000000000000000000000000000000 DUP3 PUSH31 0xFFFFFFFFFFFFFFFFFFFFFFFFFFFFFFFFFFFFFFFFFFFFFFFFFFFFFFFFFFFFFF NOT AND SUB PUSH2 0x1EF JUMPI PUSH1 0xA SWAP1 POP PUSH2 0x374 JUMP JUMPDEST PUSH32 0x4C00000000000000000000000000000000000000000000000000000000000000 DUP3 PUSH31 0xFFFFFFFFFFFFFFFFFFFFFFFFFFFFFFFFFFFFFFFFFFFFFFFFFFFFFFFFFFFFFF NOT AND SUB PUSH2 0x241 JUMPI PUSH1 0x32 SWAP1 POP PUSH2 0x374 JUMP JUMPDEST PUSH32 0x4300000000000000000000000000000000000000000000000000000000000000 DUP3 PUSH31 0xFFFFFFFFFFFFFFFFFFFFFFFFFFFFFFFFFFFFFFFFFFFFFFFFFFFFFFFFFFFFFF NOT AND SUB PUSH2 0x293 JUMPI PUSH1 0x64 SWAP1 POP PUSH2 0x374 JUMP JUMPDEST PUSH32 0x4400000000000000000000000000000000000000000000000000000000000000 DUP3 PUSH31 0xFFFFFFFFFFFFFFFFFFFFFFFFFFFFFFFFFFFFFFFFFFFFFFFFFFFFFFFFFFFFFF NOT AND SUB PUSH2 0x2E6 JUMPI PUSH2 0x1F4 SWAP1 POP PUSH2 0x374 JUMP JUMPDEST PUSH32 0x4D00000000000000000000000000000000000000000000000000000000000000 DUP3 PUSH31 0xFFFFFFFFFFFFFFFFFFFFFFFFFFFFFFFFFFFFFFFFFFFFFFFFFFFFFFFFFFFFFF NOT AND SUB PUSH2 0x339 JUMPI PUSH2 0x3E8 SWAP1 POP PUSH2 0x374 JUMP JUMPDEST PUSH1 0x40 MLOAD PUSH32 0x8C379A000000000000000000000000000000000000000000000000000000000 DUP2 MSTORE PUSH1 0x4 ADD PUSH2 0x36B SWAP1 PUSH2 0x67F JUMP JUMPDEST PUSH1 0x40 MLOAD DUP1 SWAP2 SUB SWAP1 REVERT JUMPDEST SWAP2 SWAP1 POP JUMP JUMPDEST PUSH0 PUSH1 0x40 MLOAD SWAP1 POP SWAP1 JUMP JUMPDEST PUSH0 PUSH0 REVERT JUMPDEST PUSH0 PUSH0 REVERT JUMPDEST PUSH0 PUSH0 REVERT JUMPDEST PUSH0 PUSH0 REVERT JUMPDEST PUSH0 PUSH1 0x1F NOT PUSH1 0x1F DUP4 ADD AND SWAP1 POP SWAP2 SWAP1 POP JUMP JUMPDEST PUSH32 0x4E487B7100000000000000000000000000000000000000000000000000000000 PUSH0 MSTORE PUSH1 0x41 PUSH1 0x4 MSTORE PUSH1 0x24 PUSH0 REVERT JUMPDEST PUSH2 0x3D8 DUP3 PUSH2 0x392 JUMP JUMPDEST DUP2 ADD DUP2 DUP2 LT PUSH8 0xFFFFFFFFFFFFFFFF DUP3 GT OR ISZERO PUSH2 0x3F7 JUMPI PUSH2 0x3F6 PUSH2 0x3A2 JUMP JUMPDEST JUMPDEST DUP1 PUSH1 0x40 MSTORE POP POP POP JUMP JUMPDEST PUSH0 PUSH2 0x409 PUSH2 0x379 JUMP JUMPDEST SWAP1 POP PUSH2 0x415 DUP3 DUP3 PUSH2 0x3CF JUMP JUMPDEST SWAP2 SWAP1 POP JUMP JUMPDEST PUSH0 PUSH8 0xFFFFFFFFFFFFFFFF DUP3 GT ISZERO PUSH2 0x434 JUMPI PUSH2 0x433 PUSH2 0x3A2 JUMP JUMPDEST JUMPDEST PUSH2 0x43D DUP3 PUSH2 0x392 JUMP JUMPDEST SWAP1 POP PUSH1 0x20 DUP2 ADD SWAP1 POP SWAP2 SWAP1 POP JUMP JUMPDEST DUP3 DUP2 DUP4 CALLDATACOPY PUSH0 DUP4 DUP4 ADD MSTORE POP POP POP JUMP JUMPDEST PUSH0 PUSH2 0x46A PUSH2 0x465 DUP5 PUSH2 0x41A JUMP JUMPDEST PUSH2 0x400 JUMP JUMPDEST SWAP1 POP DUP3 DUP2 MSTORE PUSH1 0x20 DUP2 ADD DUP5 DUP5 DUP5 ADD GT ISZERO PUSH2 0x486 JUMPI PUSH2 0x485 PUSH2 0x38E JUMP JUMPDEST JUMPDEST PUSH2 0x491 DUP5 DUP3 DUP6 PUSH2 0x44A JUMP JUMPDEST POP SWAP4 SWAP3 POP POP POP JUMP JUMPDEST PUSH0 DUP3 PUSH1 0x1F DUP4 ADD SLT PUSH2 0x4AD JUMPI PUSH2 0x4AC PUSH2 0x38A JUMP JUMPDEST JUMPDEST DUP2 CALLDATALOAD PUSH2 0x4BD DUP5 DUP3 PUSH1 0x20 DUP7 ADD PUSH2 0x458 JUMP JUMPDEST SWAP2 POP POP SWAP3 SWAP2 POP POP JUMP JUMPDEST PUSH0 PUSH1 0x20 DUP3 DUP5 SUB SLT ISZERO PUSH2 0x4DB JUMPI PUSH2 0x4DA PUSH2 0x382 JUMP JUMPDEST JUMPDEST PUSH0 DUP3 ADD CALLDATALOAD PUSH8 0xFFFFFFFFFFFFFFFF DUP2 GT ISZERO PUSH2 0x4F8 JUMPI PUSH2 0x4F7 PUSH2 0x386 JUMP JUMPDEST JUMPDEST PUSH2 0x504 DUP5 DUP3 DUP6 ADD PUSH2 0x499 JUMP JUMPDEST SWAP2 POP POP SWAP3 SWAP2 POP POP JUMP JUMPDEST PUSH0 DUP2 SWAP1 POP SWAP2 SWAP1 POP JUMP JUMPDEST PUSH2 0x51F DUP2 PUSH2 0x50D JUMP JUMPDEST DUP3 MSTORE POP POP JUMP JUMPDEST PUSH0 PUSH1 0x20 DUP3 ADD SWAP1 POP PUSH2 0x538 PUSH0 DUP4 ADD DUP5 PUSH2 0x516 JUMP JUMPDEST SWAP3 SWAP2 POP POP JUMP JUMPDEST PUSH32 0x4E487B7100000000000000000000000000000000000000000000000000000000 PUSH0 MSTORE PUSH1 0x11 PUSH1 0x4 MSTORE PUSH1 0x24 PUSH0 REVERT JUMPDEST PUSH0 PUSH2 0x575 DUP3 PUSH2 0x50D JUMP JUMPDEST SWAP2 POP PUSH2 0x580 DUP4 PUSH2 0x50D JUMP JUMPDEST SWAP3 POP DUP3 DUP3 SUB SWAP1 POP DUP2 DUP2 GT ISZERO PUSH2 0x598 JUMPI PUSH2 0x597 PUSH2 0x53E JUMP JUMPDEST JUMPDEST SWAP3 SWAP2 POP POP JUMP JUMPDEST PUSH32 0x4E487B7100000000000000000000000000000000000000000000000000000000 PUSH0 MSTORE PUSH1 0x32 PUSH1 0x4 MSTORE PUSH1 0x24 PUSH0 REVERT JUMPDEST PUSH0 PUSH2 0x5D5 DUP3 PUSH2 0x50D JUMP JUMPDEST SWAP2 POP PUSH2 0x5E0 DUP4 PUSH2 0x50D JUMP JUMPDEST SWAP3 POP DUP3 DUP3 ADD SWAP1 POP DUP1 DUP3 GT ISZERO PUSH2 0x5F8 JUMPI PUSH2 0x5F7 PUSH2 0x53E JUMP JUMPDEST JUMPDEST SWAP3 SWAP2 POP POP JUMP JUMPDEST PUSH0 PUSH2 0x608 DUP3 PUSH2 0x50D JUMP JUMPDEST SWAP2 POP PUSH0 DUP3 SUB PUSH2 0x61A JUMPI PUSH2 0x619 PUSH2 0x53E JUMP JUMPDEST JUMPDEST PUSH1 0x1 DUP3 SUB SWAP1 POP SWAP2 SWAP1 POP JUMP JUMPDEST PUSH0 DUP3 DUP3 MSTORE PUSH1 0x20 DUP3 ADD SWAP1 POP SWAP3 SWAP2 POP POP JUMP JUMPDEST PUSH32 0x496E76616C696420526F6D616E206E756D6572616C0000000000000000000000 PUSH0 DUP3 ADD MSTORE POP JUMP JUMPDEST PUSH0 PUSH2 0x669 PUSH1 0x15 DUP4 PUSH2 0x625 JUMP JUMPDEST SWAP2 POP PUSH2 0x674 DUP3 PUSH2 0x635 JUMP JUMPDEST PUSH1 0x20 DUP3 ADD SWAP1 POP SWAP2 SWAP1 POP JUMP JUMPDEST PUSH0 PUSH1 0x20 DUP3 ADD SWAP1 POP DUP2 DUP2 SUB PUSH0 DUP4 ADD MSTORE PUSH2 0x696 DUP2 PUSH2 0x65D JUMP JUMPDEST SWAP1 POP SWAP2 SWAP1 POP JUMP INVALID LOG2 PUSH5 0x6970667358 0x22 SLT KECCAK256 0xAF OR 0xC6 0x2B PUSH18 0xB0C37C281D96EEC8FBB62A5D5B83AB691C2B 0x26 PC 0xA8 EXP 0xD9 DUP1 0xE2 0xC3 SWAP11 PUSH5 0x736F6C6343 STOP ADDMOD 0x1E STOP CALLER "
				},
				"gasEstimates": {
					"creation": {
						"codeDepositCost": "349400",
						"executionCost": "384",
						"totalCost": "349784"
					},
					"external": {
						"romanToInt(string)": "infinite"
					},
					"internal": {
						"_valueOf(bytes1)": "infinite"
					}
				},
				"methodIdentifiers": {
					"romanToInt(string)": "cb159dfe"
				}
			},
			"storageLayout": {
				"storage": [],
				"types": null
			},
			"userdoc": {
				"kind": "user",
				"methods": {},
				"version": 1
			}
		}
	}
}