{
	"task01/BinarySearch.sol": {
		"BinarySearch": {
			"abi": [
				{
					"inputs": [
						{
							"internalType": "uint256[]",
							"name": "arr",
							"type": "uint256[]"
						},
						{
							"internalType": "uint256",
							"name": "target",
							"type": "uint256"
						}
					],
					"name": "binarySearch",
					"outputs": [
						{
							"internalType": "uint256",
							"name": "",
							"type": "uint256"
						}
					],
					"stateMutability": "pure",
					"type": "function"
				}
			],
			"devdoc": {
				"kind": "dev",
				"methods": {},
				"version": 1
			},
			"evm": {
				"assembly": "    /* \"task01/BinarySearch.sol\":60:677  contract BinarySearch {... */\n  mstore(0x40, 0x80)\n  callvalue\n  dup1\n  iszero\n  tag_1\n  jumpi\n  revert(0x00, 0x00)\ntag_1:\n  pop\n  dataSize(sub_0)\n  dup1\n  dataOffset(sub_0)\n  0x00\n  codecopy\n  0x00\n  return\nstop\n\nsub_0: assembly {\n        /* \"task01/BinarySearch.sol\":60:677  contract BinarySearch {... */\n      mstore(0x40, 0x80)\n      callvalue\n      dup1\n      iszero\n      tag_1\n      jumpi\n      revert(0x00, 0x00)\n    tag_1:\n      pop\n      jumpi(tag_2, lt(calldatasize, 0x04))\n      shr(0xe0, calldataload(0x00))\n      dup1\n      0xb12601da\n      eq\n      tag_3\n      jumpi\n    tag_2:\n      revert(0x00, 0x00)\n        /* \"task01/BinarySearch.sol\":145:674  function binarySearch(uint256[] memory arr, uint256 target) public pure returns (uint256) {... */\n    tag_3:\n      tag_4\n      0x04\n      dup1\n      calldatasize\n      sub\n      dup2\n      add\n      swap1\n      tag_5\n      swap2\n      swap1\n      tag_6\n      jump\t// in\n    tag_5:\n      tag_7\n      jump\t// in\n    tag_4:\n      mload(0x40)\n      tag_8\n      swap2\n      swap1\n      tag_9\n      jump\t// in\n    tag_8:\n      mload(0x40)\n      dup1\n      swap2\n      sub\n      swap1\n      return\n    tag_7:\n        /* \"task01/BinarySearch.sol\":226:233  uint256 */\n      0x00\n        /* \"task01/BinarySearch.sol\":246:258  uint256 left */\n      0x00\n        /* \"task01/BinarySearch.sol\":261:262  0 */\n      0x00\n        /* \"task01/BinarySearch.sol\":246:262  uint256 left = 0 */\n      swap1\n      pop\n        /* \"task01/BinarySearch.sol\":273:286  uint256 right */\n      0x00\n        /* \"task01/BinarySearch.sol\":289:292  arr */\n      dup5\n        /* \"task01/BinarySearch.sol\":289:299  arr.length */\n      mload\n        /* \"task01/BinarySearch.sol\":273:299  uint256 right = arr.length */\n      swap1\n      pop\n        /* \"task01/BinarySearch.sol\":312:624  while (left < right) {... */\n    tag_11:\n        /* \"task01/BinarySearch.sol\":326:331  right */\n      dup1\n        /* \"task01/BinarySearch.sol\":319:323  left */\n      dup3\n        /* \"task01/BinarySearch.sol\":319:331  left < right */\n      lt\n        /* \"task01/BinarySearch.sol\":312:624  while (left < right) {... */\n      iszero\n      tag_12\n      jumpi\n        /* \"task01/BinarySearch.sol\":348:359  uint256 mid */\n      0x00\n        /* \"task01/BinarySearch.sol\":386:387  2 */\n      0x02\n        /* \"task01/BinarySearch.sol\":378:382  left */\n      dup4\n        /* \"task01/BinarySearch.sol\":370:375  right */\n      dup4\n        /* \"task01/BinarySearch.sol\":370:382  right - left */\n      tag_13\n      swap2\n      swap1\n      tag_14\n      jump\t// in\n    tag_13:\n        /* \"task01/BinarySearch.sol\":369:387  (right - left) / 2 */\n      tag_15\n      swap2\n      swap1\n      tag_16\n      jump\t// in\n    tag_15:\n        /* \"task01/BinarySearch.sol\":362:366  left */\n      dup4\n        /* \"task01/BinarySearch.sol\":362:387  left + (right - left) / 2 */\n      tag_17\n      swap2\n      swap1\n      tag_18\n      jump\t// in\n    tag_17:\n        /* \"task01/BinarySearch.sol\":348:387  uint256 mid = left + (right - left) / 2 */\n      swap1\n      pop\n        /* \"task01/BinarySearch.sol\":420:426  target */\n      dup5\n        /* \"task01/BinarySearch.sol\":408:411  arr */\n      dup7\n        /* \"task01/BinarySearch.sol\":412:415  mid */\n      dup3\n        /* \"task01/BinarySearch.sol\":408:416  arr[mid] */\n      dup2\n      mload\n      dup2\n      lt\n      tag_19\n      jumpi\n      tag_20\n      tag_21\n      jump\t// in\n    tag_20:\n    tag_19:\n      0x20\n      mul\n      0x20\n      add\n      add\n      mload\n        /* \"task01/BinarySearch.sol\":408:426  arr[mid] == target */\n      sub\n        /* \"task01/BinarySearch.sol\":404:613  if (arr[mid] == target) {... */\n      tag_22\n      jumpi\n        /* \"task01/BinarySearch.sol\":454:457  mid */\n      dup1\n        /* \"task01/BinarySearch.sol\":447:457  return mid */\n      swap4\n      pop\n      pop\n      pop\n      pop\n      jump(tag_10)\n        /* \"task01/BinarySearch.sol\":404:613  if (arr[mid] == target) {... */\n    tag_22:\n        /* \"task01/BinarySearch.sol\":504:510  target */\n      dup5\n        /* \"task01/BinarySearch.sol\":493:496  arr */\n      dup7\n        /* \"task01/BinarySearch.sol\":497:500  mid */\n      dup3\n        /* \"task01/BinarySearch.sol\":493:501  arr[mid] */\n      dup2\n      mload\n      dup2\n      lt\n      tag_24\n      jumpi\n      tag_25\n      tag_21\n      jump\t// in\n    tag_25:\n    tag_24:\n      0x20\n      mul\n      0x20\n      add\n      add\n      mload\n        /* \"task01/BinarySearch.sol\":493:510  arr[mid] < target */\n      lt\n        /* \"task01/BinarySearch.sol\":489:613  if (arr[mid] < target) {... */\n      iszero\n      tag_26\n      jumpi\n        /* \"task01/BinarySearch.sol\":544:545  1 */\n      0x01\n        /* \"task01/BinarySearch.sol\":538:541  mid */\n      dup2\n        /* \"task01/BinarySearch.sol\":538:545  mid + 1 */\n      tag_27\n      swap2\n      swap1\n      tag_18\n      jump\t// in\n    tag_27:\n        /* \"task01/BinarySearch.sol\":531:545  left = mid + 1 */\n      swap3\n      pop\n        /* \"task01/BinarySearch.sol\":489:613  if (arr[mid] < target) {... */\n      jump(tag_28)\n    tag_26:\n        /* \"task01/BinarySearch.sol\":594:597  mid */\n      dup1\n        /* \"task01/BinarySearch.sol\":586:597  right = mid */\n      swap2\n      pop\n        /* \"task01/BinarySearch.sol\":489:613  if (arr[mid] < target) {... */\n    tag_28:\n        /* \"task01/BinarySearch.sol\":333:624  {... */\n      pop\n        /* \"task01/BinarySearch.sol\":312:624  while (left < right) {... */\n      jump(tag_11)\n    tag_12:\n        /* \"task01/BinarySearch.sol\":643:646  arr */\n      dup5\n        /* \"task01/BinarySearch.sol\":643:653  arr.length */\n      mload\n        /* \"task01/BinarySearch.sol\":636:653  return arr.length */\n      swap3\n      pop\n      pop\n      pop\n        /* \"task01/BinarySearch.sol\":145:674  function binarySearch(uint256[] memory arr, uint256 target) public pure returns (uint256) {... */\n    tag_10:\n      swap3\n      swap2\n      pop\n      pop\n      jump\t// out\n        /* \"#utility.yul\":7:82   */\n    tag_29:\n        /* \"#utility.yul\":40:46   */\n      0x00\n        /* \"#utility.yul\":73:75   */\n      0x40\n        /* \"#utility.yul\":67:76   */\n      mload\n        /* \"#utility.yul\":57:76   */\n      swap1\n      pop\n        /* \"#utility.yul\":7:82   */\n      swap1\n      jump\t// out\n        /* \"#utility.yul\":88:205   */\n    tag_30:\n        /* \"#utility.yul\":197:198   */\n      0x00\n        /* \"#utility.yul\":194:195   */\n      0x00\n        /* \"#utility.yul\":187:199   */\n      revert\n        /* \"#utility.yul\":211:328   */\n    tag_31:\n        /* \"#utility.yul\":320:321   */\n      0x00\n        /* \"#utility.yul\":317:318   */\n      0x00\n        /* \"#utility.yul\":310:322   */\n      revert\n        /* \"#utility.yul\":334:451   */\n    tag_32:\n        /* \"#utility.yul\":443:444   */\n      0x00\n        /* \"#utility.yul\":440:441   */\n      0x00\n        /* \"#utility.yul\":433:445   */\n      revert\n        /* \"#utility.yul\":457:559   */\n    tag_33:\n        /* \"#utility.yul\":498:504   */\n      0x00\n        /* \"#utility.yul\":549:551   */\n      0x1f\n        /* \"#utility.yul\":545:552   */\n      not\n        /* \"#utility.yul\":540:542   */\n      0x1f\n        /* \"#utility.yul\":533:538   */\n      dup4\n        /* \"#utility.yul\":529:543   */\n      add\n        /* \"#utility.yul\":525:553   */\n      and\n        /* \"#utility.yul\":515:553   */\n      swap1\n      pop\n        /* \"#utility.yul\":457:559   */\n      swap2\n      swap1\n      pop\n      jump\t// out\n        /* \"#utility.yul\":565:745   */\n    tag_34:\n        /* \"#utility.yul\":613:690   */\n      0x4e487b7100000000000000000000000000000000000000000000000000000000\n        /* \"#utility.yul\":610:611   */\n      0x00\n        /* \"#utility.yul\":603:691   */\n      mstore\n        /* \"#utility.yul\":710:714   */\n      0x41\n        /* \"#utility.yul\":707:708   */\n      0x04\n        /* \"#utility.yul\":700:715   */\n      mstore\n        /* \"#utility.yul\":734:738   */\n      0x24\n        /* \"#utility.yul\":731:732   */\n      0x00\n        /* \"#utility.yul\":724:739   */\n      revert\n        /* \"#utility.yul\":751:1032   */\n    tag_35:\n        /* \"#utility.yul\":834:861   */\n      tag_55\n        /* \"#utility.yul\":856:860   */\n      dup3\n        /* \"#utility.yul\":834:861   */\n      tag_33\n      jump\t// in\n    tag_55:\n        /* \"#utility.yul\":826:832   */\n      dup2\n        /* \"#utility.yul\":822:862   */\n      add\n        /* \"#utility.yul\":964:970   */\n      dup2\n        /* \"#utility.yul\":952:962   */\n      dup2\n        /* \"#utility.yul\":949:971   */\n      lt\n        /* \"#utility.yul\":928:946   */\n      0xffffffffffffffff\n        /* \"#utility.yul\":916:926   */\n      dup3\n        /* \"#utility.yul\":913:947   */\n      gt\n        /* \"#utility.yul\":910:972   */\n      or\n        /* \"#utility.yul\":907:995   */\n      iszero\n      tag_56\n      jumpi\n        /* \"#utility.yul\":975:993   */\n      tag_57\n      tag_34\n      jump\t// in\n    tag_57:\n        /* \"#utility.yul\":907:995   */\n    tag_56:\n        /* \"#utility.yul\":1015:1025   */\n      dup1\n        /* \"#utility.yul\":1011:1013   */\n      0x40\n        /* \"#utility.yul\":1004:1026   */\n      mstore\n        /* \"#utility.yul\":794:1032   */\n      pop\n        /* \"#utility.yul\":751:1032   */\n      pop\n      pop\n      jump\t// out\n        /* \"#utility.yul\":1038:1167   */\n    tag_36:\n        /* \"#utility.yul\":1072:1078   */\n      0x00\n        /* \"#utility.yul\":1099:1119   */\n      tag_59\n      tag_29\n      jump\t// in\n    tag_59:\n        /* \"#utility.yul\":1089:1119   */\n      swap1\n      pop\n        /* \"#utility.yul\":1128:1161   */\n      tag_60\n        /* \"#utility.yul\":1156:1160   */\n      dup3\n        /* \"#utility.yul\":1148:1154   */\n      dup3\n        /* \"#utility.yul\":1128:1161   */\n      tag_35\n      jump\t// in\n    tag_60:\n        /* \"#utility.yul\":1038:1167   */\n      swap2\n      swap1\n      pop\n      jump\t// out\n        /* \"#utility.yul\":1173:1484   */\n    tag_37:\n        /* \"#utility.yul\":1250:1254   */\n      0x00\n        /* \"#utility.yul\":1340:1358   */\n      0xffffffffffffffff\n        /* \"#utility.yul\":1332:1338   */\n      dup3\n        /* \"#utility.yul\":1329:1359   */\n      gt\n        /* \"#utility.yul\":1326:1382   */\n      iszero\n      tag_62\n      jumpi\n        /* \"#utility.yul\":1362:1380   */\n      tag_63\n      tag_34\n      jump\t// in\n    tag_63:\n        /* \"#utility.yul\":1326:1382   */\n    tag_62:\n        /* \"#utility.yul\":1412:1416   */\n      0x20\n        /* \"#utility.yul\":1404:1410   */\n      dup3\n        /* \"#utility.yul\":1400:1417   */\n      mul\n        /* \"#utility.yul\":1392:1417   */\n      swap1\n      pop\n        /* \"#utility.yul\":1472:1476   */\n      0x20\n        /* \"#utility.yul\":1466:1470   */\n      dup2\n        /* \"#utility.yul\":1462:1477   */\n      add\n        /* \"#utility.yul\":1454:1477   */\n      swap1\n      pop\n        /* \"#utility.yul\":1173:1484   */\n      swap2\n      swap1\n      pop\n      jump\t// out\n        /* \"#utility.yul\":1490:1607   */\n    tag_38:\n        /* \"#utility.yul\":1599:1600   */\n      0x00\n        /* \"#utility.yul\":1596:1597   */\n      0x00\n        /* \"#utility.yul\":1589:1601   */\n      revert\n        /* \"#utility.yul\":1613:1690   */\n    tag_39:\n        /* \"#utility.yul\":1650:1657   */\n      0x00\n        /* \"#utility.yul\":1679:1684   */\n      dup2\n        /* \"#utility.yul\":1668:1684   */\n      swap1\n      pop\n        /* \"#utility.yul\":1613:1690   */\n      swap2\n      swap1\n      pop\n      jump\t// out\n        /* \"#utility.yul\":1696:1818   */\n    tag_40:\n        /* \"#utility.yul\":1769:1793   */\n      tag_67\n        /* \"#utility.yul\":1787:1792   */\n      dup2\n        /* \"#utility.yul\":1769:1793   */\n      tag_39\n      jump\t// in\n    tag_67:\n        /* \"#utility.yul\":1762:1767   */\n      dup2\n        /* \"#utility.yul\":1759:1794   */\n      eq\n        /* \"#utility.yul\":1749:1812   */\n      tag_68\n      jumpi\n        /* \"#utility.yul\":1808:1809   */\n      0x00\n        /* \"#utility.yul\":1805:1806   */\n      0x00\n        /* \"#utility.yul\":1798:1810   */\n      revert\n        /* \"#utility.yul\":1749:1812   */\n    tag_68:\n        /* \"#utility.yul\":1696:1818   */\n      pop\n      jump\t// out\n        /* \"#utility.yul\":1824:1963   */\n    tag_41:\n        /* \"#utility.yul\":1870:1875   */\n      0x00\n        /* \"#utility.yul\":1908:1914   */\n      dup2\n        /* \"#utility.yul\":1895:1915   */\n      calldataload\n        /* \"#utility.yul\":1886:1915   */\n      swap1\n      pop\n        /* \"#utility.yul\":1924:1957   */\n      tag_70\n        /* \"#utility.yul\":1951:1956   */\n      dup2\n        /* \"#utility.yul\":1924:1957   */\n      tag_40\n      jump\t// in\n    tag_70:\n        /* \"#utility.yul\":1824:1963   */\n      swap3\n      swap2\n      pop\n      pop\n      jump\t// out\n        /* \"#utility.yul\":1986:2696   */\n    tag_42:\n        /* \"#utility.yul\":2082:2087   */\n      0x00\n        /* \"#utility.yul\":2107:2188   */\n      tag_72\n        /* \"#utility.yul\":2123:2187   */\n      tag_73\n        /* \"#utility.yul\":2180:2186   */\n      dup5\n        /* \"#utility.yul\":2123:2187   */\n      tag_37\n      jump\t// in\n    tag_73:\n        /* \"#utility.yul\":2107:2188   */\n      tag_36\n      jump\t// in\n    tag_72:\n        /* \"#utility.yul\":2098:2188   */\n      swap1\n      pop\n        /* \"#utility.yul\":2208:2213   */\n      dup1\n        /* \"#utility.yul\":2237:2243   */\n      dup4\n        /* \"#utility.yul\":2230:2235   */\n      dup3\n        /* \"#utility.yul\":2223:2244   */\n      mstore\n        /* \"#utility.yul\":2271:2275   */\n      0x20\n        /* \"#utility.yul\":2264:2269   */\n      dup3\n        /* \"#utility.yul\":2260:2276   */\n      add\n        /* \"#utility.yul\":2253:2276   */\n      swap1\n      pop\n        /* \"#utility.yul\":2324:2328   */\n      0x20\n        /* \"#utility.yul\":2316:2322   */\n      dup5\n        /* \"#utility.yul\":2312:2329   */\n      mul\n        /* \"#utility.yul\":2304:2310   */\n      dup4\n        /* \"#utility.yul\":2300:2330   */\n      add\n        /* \"#utility.yul\":2353:2356   */\n      dup6\n        /* \"#utility.yul\":2345:2351   */\n      dup2\n        /* \"#utility.yul\":2342:2357   */\n      gt\n        /* \"#utility.yul\":2339:2461   */\n      iszero\n      tag_74\n      jumpi\n        /* \"#utility.yul\":2372:2451   */\n      tag_75\n      tag_38\n      jump\t// in\n    tag_75:\n        /* \"#utility.yul\":2339:2461   */\n    tag_74:\n        /* \"#utility.yul\":2487:2493   */\n      dup4\n        /* \"#utility.yul\":2470:2690   */\n    tag_76:\n        /* \"#utility.yul\":2504:2510   */\n      dup2\n        /* \"#utility.yul\":2499:2502   */\n      dup2\n        /* \"#utility.yul\":2496:2511   */\n      lt\n        /* \"#utility.yul\":2470:2690   */\n      iszero\n      tag_78\n      jumpi\n        /* \"#utility.yul\":2579:2582   */\n      dup1\n        /* \"#utility.yul\":2608:2645   */\n      tag_79\n        /* \"#utility.yul\":2641:2644   */\n      dup9\n        /* \"#utility.yul\":2629:2639   */\n      dup3\n        /* \"#utility.yul\":2608:2645   */\n      tag_41\n      jump\t// in\n    tag_79:\n        /* \"#utility.yul\":2603:2606   */\n      dup5\n        /* \"#utility.yul\":2596:2646   */\n      mstore\n        /* \"#utility.yul\":2675:2679   */\n      0x20\n        /* \"#utility.yul\":2670:2673   */\n      dup5\n        /* \"#utility.yul\":2666:2680   */\n      add\n        /* \"#utility.yul\":2659:2680   */\n      swap4\n      pop\n        /* \"#utility.yul\":2546:2690   */\n      pop\n        /* \"#utility.yul\":2530:2534   */\n      0x20\n        /* \"#utility.yul\":2525:2528   */\n      dup2\n        /* \"#utility.yul\":2521:2535   */\n      add\n        /* \"#utility.yul\":2514:2535   */\n      swap1\n      pop\n        /* \"#utility.yul\":2470:2690   */\n      jump(tag_76)\n    tag_78:\n        /* \"#utility.yul\":2474:2495   */\n      pop\n        /* \"#utility.yul\":2088:2696   */\n      pop\n      pop\n        /* \"#utility.yul\":1986:2696   */\n      swap4\n      swap3\n      pop\n      pop\n      pop\n      jump\t// out\n        /* \"#utility.yul\":2719:3089   */\n    tag_43:\n        /* \"#utility.yul\":2790:2795   */\n      0x00\n        /* \"#utility.yul\":2839:2842   */\n      dup3\n        /* \"#utility.yul\":2832:2836   */\n      0x1f\n        /* \"#utility.yul\":2824:2830   */\n      dup4\n        /* \"#utility.yul\":2820:2837   */\n      add\n        /* \"#utility.yul\":2816:2843   */\n      slt\n        /* \"#utility.yul\":2806:2928   */\n      tag_81\n      jumpi\n        /* \"#utility.yul\":2847:2926   */\n      tag_82\n      tag_32\n      jump\t// in\n    tag_82:\n        /* \"#utility.yul\":2806:2928   */\n    tag_81:\n        /* \"#utility.yul\":2964:2970   */\n      dup2\n        /* \"#utility.yul\":2951:2971   */\n      calldataload\n        /* \"#utility.yul\":2989:3083   */\n      tag_83\n        /* \"#utility.yul\":3079:3082   */\n      dup5\n        /* \"#utility.yul\":3071:3077   */\n      dup3\n        /* \"#utility.yul\":3064:3068   */\n      0x20\n        /* \"#utility.yul\":3056:3062   */\n      dup7\n        /* \"#utility.yul\":3052:3069   */\n      add\n        /* \"#utility.yul\":2989:3083   */\n      tag_42\n      jump\t// in\n    tag_83:\n        /* \"#utility.yul\":2980:3083   */\n      swap2\n      pop\n        /* \"#utility.yul\":2796:3089   */\n      pop\n        /* \"#utility.yul\":2719:3089   */\n      swap3\n      swap2\n      pop\n      pop\n      jump\t// out\n        /* \"#utility.yul\":3095:3779   */\n    tag_6:\n        /* \"#utility.yul\":3188:3194   */\n      0x00\n        /* \"#utility.yul\":3196:3202   */\n      0x00\n        /* \"#utility.yul\":3245:3247   */\n      0x40\n        /* \"#utility.yul\":3233:3242   */\n      dup4\n        /* \"#utility.yul\":3224:3231   */\n      dup6\n        /* \"#utility.yul\":3220:3243   */\n      sub\n        /* \"#utility.yul\":3216:3248   */\n      slt\n        /* \"#utility.yul\":3213:3332   */\n      iszero\n      tag_85\n      jumpi\n        /* \"#utility.yul\":3251:3330   */\n      tag_86\n      tag_30\n      jump\t// in\n    tag_86:\n        /* \"#utility.yul\":3213:3332   */\n    tag_85:\n        /* \"#utility.yul\":3399:3400   */\n      0x00\n        /* \"#utility.yul\":3388:3397   */\n      dup4\n        /* \"#utility.yul\":3384:3401   */\n      add\n        /* \"#utility.yul\":3371:3402   */\n      calldataload\n        /* \"#utility.yul\":3429:3447   */\n      0xffffffffffffffff\n        /* \"#utility.yul\":3421:3427   */\n      dup2\n        /* \"#utility.yul\":3418:3448   */\n      gt\n        /* \"#utility.yul\":3415:3532   */\n      iszero\n      tag_87\n      jumpi\n        /* \"#utility.yul\":3451:3530   */\n      tag_88\n      tag_31\n      jump\t// in\n    tag_88:\n        /* \"#utility.yul\":3415:3532   */\n    tag_87:\n        /* \"#utility.yul\":3556:3634   */\n      tag_89\n        /* \"#utility.yul\":3626:3633   */\n      dup6\n        /* \"#utility.yul\":3617:3623   */\n      dup3\n        /* \"#utility.yul\":3606:3615   */\n      dup7\n        /* \"#utility.yul\":3602:3624   */\n      add\n        /* \"#utility.yul\":3556:3634   */\n      tag_43\n      jump\t// in\n    tag_89:\n        /* \"#utility.yul\":3546:3634   */\n      swap3\n      pop\n        /* \"#utility.yul\":3342:3644   */\n      pop\n        /* \"#utility.yul\":3683:3685   */\n      0x20\n        /* \"#utility.yul\":3709:3762   */\n      tag_90\n        /* \"#utility.yul\":3754:3761   */\n      dup6\n        /* \"#utility.yul\":3745:3751   */\n      dup3\n        /* \"#utility.yul\":3734:3743   */\n      dup7\n        /* \"#utility.yul\":3730:3752   */\n      add\n        /* \"#utility.yul\":3709:3762   */\n      tag_41\n      jump\t// in\n    tag_90:\n        /* \"#utility.yul\":3699:3762   */\n      swap2\n      pop\n        /* \"#utility.yul\":3654:3772   */\n      pop\n        /* \"#utility.yul\":3095:3779   */\n      swap3\n      pop\n      swap3\n      swap1\n      pop\n      jump\t// out\n        /* \"#utility.yul\":3785:3903   */\n    tag_44:\n        /* \"#utility.yul\":3872:3896   */\n      tag_92\n        /* \"#utility.yul\":3890:3895   */\n      dup2\n        /* \"#utility.yul\":3872:3896   */\n      tag_39\n      jump\t// in\n    tag_92:\n        /* \"#utility.yul\":3867:3870   */\n      dup3\n        /* \"#utility.yul\":3860:3897   */\n      mstore\n        /* \"#utility.yul\":3785:3903   */\n      pop\n      pop\n      jump\t// out\n        /* \"#utility.yul\":3909:4131   */\n    tag_9:\n        /* \"#utility.yul\":4002:4006   */\n      0x00\n        /* \"#utility.yul\":4040:4042   */\n      0x20\n        /* \"#utility.yul\":4029:4038   */\n      dup3\n        /* \"#utility.yul\":4025:4043   */\n      add\n        /* \"#utility.yul\":4017:4043   */\n      swap1\n      pop\n        /* \"#utility.yul\":4053:4124   */\n      tag_94\n        /* \"#utility.yul\":4121:4122   */\n      0x00\n        /* \"#utility.yul\":4110:4119   */\n      dup4\n        /* \"#utility.yul\":4106:4123   */\n      add\n        /* \"#utility.yul\":4097:4103   */\n      dup5\n        /* \"#utility.yul\":4053:4124   */\n      tag_44\n      jump\t// in\n    tag_94:\n        /* \"#utility.yul\":3909:4131   */\n      swap3\n      swap2\n      pop\n      pop\n      jump\t// out\n        /* \"#utility.yul\":4137:4317   */\n    tag_45:\n        /* \"#utility.yul\":4185:4262   */\n      0x4e487b7100000000000000000000000000000000000000000000000000000000\n        /* \"#utility.yul\":4182:4183   */\n      0x00\n        /* \"#utility.yul\":4175:4263   */\n      mstore\n        /* \"#utility.yul\":4282:4286   */\n      0x11\n        /* \"#utility.yul\":4279:4280   */\n      0x04\n        /* \"#utility.yul\":4272:4287   */\n      mstore\n        /* \"#utility.yul\":4306:4310   */\n      0x24\n        /* \"#utility.yul\":4303:4304   */\n      0x00\n        /* \"#utility.yul\":4296:4311   */\n      revert\n        /* \"#utility.yul\":4323:4517   */\n    tag_14:\n        /* \"#utility.yul\":4363:4367   */\n      0x00\n        /* \"#utility.yul\":4383:4403   */\n      tag_97\n        /* \"#utility.yul\":4401:4402   */\n      dup3\n        /* \"#utility.yul\":4383:4403   */\n      tag_39\n      jump\t// in\n    tag_97:\n        /* \"#utility.yul\":4378:4403   */\n      swap2\n      pop\n        /* \"#utility.yul\":4417:4437   */\n      tag_98\n        /* \"#utility.yul\":4435:4436   */\n      dup4\n        /* \"#utility.yul\":4417:4437   */\n      tag_39\n      jump\t// in\n    tag_98:\n        /* \"#utility.yul\":4412:4437   */\n      swap3\n      pop\n        /* \"#utility.yul\":4461:4462   */\n      dup3\n        /* \"#utility.yul\":4458:4459   */\n      dup3\n        /* \"#utility.yul\":4454:4463   */\n      sub\n        /* \"#utility.yul\":4446:4463   */\n      swap1\n      pop\n        /* \"#utility.yul\":4485:4486   */\n      dup2\n        /* \"#utility.yul\":4479:4483   */\n      dup2\n        /* \"#utility.yul\":4476:4487   */\n      gt\n        /* \"#utility.yul\":4473:4510   */\n      iszero\n      tag_99\n      jumpi\n        /* \"#utility.yul\":4490:4508   */\n      tag_100\n      tag_45\n      jump\t// in\n    tag_100:\n        /* \"#utility.yul\":4473:4510   */\n    tag_99:\n        /* \"#utility.yul\":4323:4517   */\n      swap3\n      swap2\n      pop\n      pop\n      jump\t// out\n        /* \"#utility.yul\":4523:4703   */\n    tag_46:\n        /* \"#utility.yul\":4571:4648   */\n      0x4e487b7100000000000000000000000000000000000000000000000000000000\n        /* \"#utility.yul\":4568:4569   */\n      0x00\n        /* \"#utility.yul\":4561:4649   */\n      mstore\n        /* \"#utility.yul\":4668:4672   */\n      0x12\n        /* \"#utility.yul\":4665:4666   */\n      0x04\n        /* \"#utility.yul\":4658:4673   */\n      mstore\n        /* \"#utility.yul\":4692:4696   */\n      0x24\n        /* \"#utility.yul\":4689:4690   */\n      0x00\n        /* \"#utility.yul\":4682:4697   */\n      revert\n        /* \"#utility.yul\":4709:4894   */\n    tag_16:\n        /* \"#utility.yul\":4749:4750   */\n      0x00\n        /* \"#utility.yul\":4766:4786   */\n      tag_103\n        /* \"#utility.yul\":4784:4785   */\n      dup3\n        /* \"#utility.yul\":4766:4786   */\n      tag_39\n      jump\t// in\n    tag_103:\n        /* \"#utility.yul\":4761:4786   */\n      swap2\n      pop\n        /* \"#utility.yul\":4800:4820   */\n      tag_104\n        /* \"#utility.yul\":4818:4819   */\n      dup4\n        /* \"#utility.yul\":4800:4820   */\n      tag_39\n      jump\t// in\n    tag_104:\n        /* \"#utility.yul\":4795:4820   */\n      swap3\n      pop\n        /* \"#utility.yul\":4839:4840   */\n      dup3\n        /* \"#utility.yul\":4829:4864   */\n      tag_105\n      jumpi\n        /* \"#utility.yul\":4844:4862   */\n      tag_106\n      tag_46\n      jump\t// in\n    tag_106:\n        /* \"#utility.yul\":4829:4864   */\n    tag_105:\n        /* \"#utility.yul\":4886:4887   */\n      dup3\n        /* \"#utility.yul\":4883:4884   */\n      dup3\n        /* \"#utility.yul\":4879:4888   */\n      div\n        /* \"#utility.yul\":4874:4888   */\n      swap1\n      pop\n        /* \"#utility.yul\":4709:4894   */\n      swap3\n      swap2\n      pop\n      pop\n      jump\t// out\n        /* \"#utility.yul\":4900:5091   */\n    tag_18:\n        /* \"#utility.yul\":4940:4943   */\n      0x00\n        /* \"#utility.yul\":4959:4979   */\n      tag_108\n        /* \"#utility.yul\":4977:4978   */\n      dup3\n        /* \"#utility.yul\":4959:4979   */\n      tag_39\n      jump\t// in\n    tag_108:\n        /* \"#utility.yul\":4954:4979   */\n      swap2\n      pop\n        /* \"#utility.yul\":4993:5013   */\n      tag_109\n        /* \"#utility.yul\":5011:5012   */\n      dup4\n        /* \"#utility.yul\":4993:5013   */\n      tag_39\n      jump\t// in\n    tag_109:\n        /* \"#utility.yul\":4988:5013   */\n      swap3\n      pop\n        /* \"#utility.yul\":5036:5037   */\n      dup3\n        /* \"#utility.yul\":5033:5034   */\n      dup3\n        /* \"#utility.yul\":5029:5038   */\n      add\n        /* \"#utility.yul\":5022:5038   */\n      swap1\n      pop\n        /* \"#utility.yul\":5057:5060   */\n      dup1\n        /* \"#utility.yul\":5054:5055   */\n      dup3\n        /* \"#utility.yul\":5051:5061   */\n      gt\n        /* \"#utility.yul\":5048:5084   */\n      iszero\n      tag_110\n      jumpi\n        /* \"#utility.yul\":5064:5082   */\n      tag_111\n      tag_45\n      jump\t// in\n    tag_111:\n        /* \"#utility.yul\":5048:5084   */\n    tag_110:\n        /* \"#utility.yul\":4900:5091   */\n      swap3\n      swap2\n      pop\n      pop\n      jump\t// out\n        /* \"#utility.yul\":5097:5277   */\n    tag_21:\n        /* \"#utility.yul\":5145:5222   */\n      0x4e487b7100000000000000000000000000000000000000000000000000000000\n        /* \"#utility.yul\":5142:5143   */\n      0x00\n        /* \"#utility.yul\":5135:5223   */\n      mstore\n        /* \"#utility.yul\":5242:5246   */\n      0x32\n        /* \"#utility.yul\":5239:5240   */\n      0x04\n        /* \"#utility.yul\":5232:5247   */\n      mstore\n        /* \"#utility.yul\":5266:5270   */\n      0x24\n        /* \"#utility.yul\":5263:5264   */\n      0x00\n        /* \"#utility.yul\":5256:5271   */\n      revert\n\n    auxdata: 0xa264697066735822122022c56b0955a85efeab6f1fd09bbfc2426674abbc8651f081e034c2544963b28364736f6c634300081e0033\n}\n",
				"bytecode": {
					"linkReferences": {},
					"object": "6080604052348015600e575f5ffd5b506104788061001c5f395ff3fe608060405234801561000f575f5ffd5b5060043610610029575f3560e01c8063b12601da1461002d575b5f5ffd5b610047600480360381019061004291906102a3565b61005d565b604051610054919061030c565b60405180910390f35b5f5f5f90505f845190505b80821015610102575f6002838361007f9190610352565b61008991906103b2565b8361009491906103e2565b9050848682815181106100aa576100a9610415565b5b6020026020010151036100c257809350505050610109565b848682815181106100d6576100d5610415565b5b602002602001015110156100f8576001816100f191906103e2565b92506100fc565b8091505b50610068565b8451925050505b92915050565b5f604051905090565b5f5ffd5b5f5ffd5b5f5ffd5b5f601f19601f8301169050919050565b7f4e487b71000000000000000000000000000000000000000000000000000000005f52604160045260245ffd5b61016a82610124565b810181811067ffffffffffffffff8211171561018957610188610134565b5b80604052505050565b5f61019b61010f565b90506101a78282610161565b919050565b5f67ffffffffffffffff8211156101c6576101c5610134565b5b602082029050602081019050919050565b5f5ffd5b5f819050919050565b6101ed816101db565b81146101f7575f5ffd5b50565b5f81359050610208816101e4565b92915050565b5f61022061021b846101ac565b610192565b90508083825260208201905060208402830185811115610243576102426101d7565b5b835b8181101561026c578061025888826101fa565b845260208401935050602081019050610245565b5050509392505050565b5f82601f83011261028a57610289610120565b5b813561029a84826020860161020e565b91505092915050565b5f5f604083850312156102b9576102b8610118565b5b5f83013567ffffffffffffffff8111156102d6576102d561011c565b5b6102e285828601610276565b92505060206102f3858286016101fa565b9150509250929050565b610306816101db565b82525050565b5f60208201905061031f5f8301846102fd565b92915050565b7f4e487b71000000000000000000000000000000000000000000000000000000005f52601160045260245ffd5b5f61035c826101db565b9150610367836101db565b925082820390508181111561037f5761037e610325565b5b92915050565b7f4e487b71000000000000000000000000000000000000000000000000000000005f52601260045260245ffd5b5f6103bc826101db565b91506103c7836101db565b9250826103d7576103d6610385565b5b828204905092915050565b5f6103ec826101db565b91506103f7836101db565b925082820190508082111561040f5761040e610325565b5b92915050565b7f4e487b71000000000000000000000000000000000000000000000000000000005f52603260045260245ffdfea264697066735822122022c56b0955a85efeab6f1fd09bbfc2426674abbc8651f081e034c2544963b28364736f6c634300081e0033",
					"opcodes": "PUSH1 0x80 PUSH1 0x40 MSTORE CALLVALUE DUP1 ISZERO PUSH1 0xE JUMPI PUSH0 PUSH0 REVERT JUMPDEST POP PUSH2 0x478 DUP1 PUSH2 0x1C PUSH0 CODECOPY PUSH0 RETURN INVALID PUSH1 0x80 PUSH1 0x40 MSTORE CALLVALUE DUP1 ISZERO PUSH2 0xF JUMPI PUSH0 PUSH0 REVERT JUMPDEST POP PUSH1 0x4 CALLDATASIZE LT PUSH2 0x29 JUMPI PUSH0 CALLDATALOAD PUSH1 0xE0 SHR DUP1 PUSH4 0xB12601DA EQ PUSH2 0x2D JUMPI JUMPDEST PUSH0 PUSH0 REVERT JUMPDEST PUSH2 0x47 PUSH1 0x4 DUP1 CALLDATASIZE SUB DUP2 ADD SWAP1 PUSH2 0x42 SWAP2 SWAP1 PUSH2 0x2A3 JUMP JUMPDEST PUSH2 0x5D JUMP JUMPDEST PUSH1 0x40 MLOAD PUSH2 0x54 SWAP2 SWAP1 PUSH2 0x30C JUMP JUMPDEST PUSH1 0x40 MLOAD DUP1 SWAP2 SUB SWAP1 RETURN JUMPDEST PUSH0 PUSH0 PUSH0 SWAP1 POP PUSH0 DUP5 MLOAD SWAP1 POP JUMPDEST DUP1 DUP3 LT ISZERO PUSH2 0x102 JUMPI PUSH0 PUSH1 0x2 DUP4 DUP4 PUSH2 0x7F SWAP2 SWAP1 PUSH2 0x352 JUMP JUMPDEST PUSH2 0x89 SWAP2 SWAP1 PUSH2 0x3B2 JUMP JUMPDEST DUP4 PUSH2 0x94 SWAP2 SWAP1 PUSH2 0x3E2 JUMP JUMPDEST SWAP1 POP DUP5 DUP7 DUP3 DUP2 MLOAD DUP2 LT PUSH2 0xAA JUMPI PUSH2 0xA9 PUSH2 0x415 JUMP JUMPDEST JUMPDEST PUSH1 0x20 MUL PUSH1 0x20 ADD ADD MLOAD SUB PUSH2 0xC2 JUMPI DUP1 SWAP4 POP POP POP POP PUSH2 0x109 JUMP JUMPDEST DUP5 DUP7 DUP3 DUP2 MLOAD DUP2 LT PUSH2 0xD6 JUMPI PUSH2 0xD5 PUSH2 0x415 JUMP JUMPDEST JUMPDEST PUSH1 0x20 MUL PUSH1 0x20 ADD ADD MLOAD LT ISZERO PUSH2 0xF8 JUMPI PUSH1 0x1 DUP2 PUSH2 0xF1 SWAP2 SWAP1 PUSH2 0x3E2 JUMP JUMPDEST SWAP3 POP PUSH2 0xFC JUMP JUMPDEST DUP1 SWAP2 POP JUMPDEST POP PUSH2 0x68 JUMP JUMPDEST DUP5 MLOAD SWAP3 POP POP POP JUMPDEST SWAP3 SWAP2 POP POP JUMP JUMPDEST PUSH0 PUSH1 0x40 MLOAD SWAP1 POP SWAP1 JUMP JUMPDEST PUSH0 PUSH0 REVERT JUMPDEST PUSH0 PUSH0 REVERT JUMPDEST PUSH0 PUSH0 REVERT JUMPDEST PUSH0 PUSH1 0x1F NOT PUSH1 0x1F DUP4 ADD AND SWAP1 POP SWAP2 SWAP1 POP JUMP JUMPDEST PUSH32 0x4E487B7100000000000000000000000000000000000000000000000000000000 PUSH0 MSTORE PUSH1 0x41 PUSH1 0x4 MSTORE PUSH1 0x24 PUSH0 REVERT JUMPDEST PUSH2 0x16A DUP3 PUSH2 0x124 JUMP JUMPDEST DUP2 ADD DUP2 DUP2 LT PUSH8 0xFFFFFFFFFFFFFFFF DUP3 GT OR ISZERO PUSH2 0x189 JUMPI PUSH2 0x188 PUSH2 0x134 JUMP JUMPDEST JUMPDEST DUP1 PUSH1 0x40 MSTORE POP POP POP JUMP JUMPDEST PUSH0 PUSH2 0x19B PUSH2 0x10F JUMP JUMPDEST SWAP1 POP PUSH2 0x1A7 DUP3 DUP3 PUSH2 0x161 JUMP JUMPDEST SWAP2 SWAP1 POP JUMP JUMPDEST PUSH0 PUSH8 0xFFFFFFFFFFFFFFFF DUP3 GT ISZERO PUSH2 0x1C6 JUMPI PUSH2 0x1C5 PUSH2 0x134 JUMP JUMPDEST JUMPDEST PUSH1 0x20 DUP3 MUL SWAP1 POP PUSH1 0x20 DUP2 ADD SWAP1 POP SWAP2 SWAP1 POP JUMP JUMPDEST PUSH0 PUSH0 REVERT JUMPDEST PUSH0 DUP2 SWAP1 POP SWAP2 SWAP1 POP JUMP JUMPDEST PUSH2 0x1ED DUP2 PUSH2 0x1DB JUMP JUMPDEST DUP2 EQ PUSH2 0x1F7 JUMPI PUSH0 PUSH0 REVERT JUMPDEST POP JUMP JUMPDEST PUSH0 DUP2 CALLDATALOAD SWAP1 POP PUSH2 0x208 DUP2 PUSH2 0x1E4 JUMP JUMPDEST SWAP3 SWAP2 POP POP JUMP JUMPDEST PUSH0 PUSH2 0x220 PUSH2 0x21B DUP5 PUSH2 0x1AC JUMP JUMPDEST PUSH2 0x192 JUMP JUMPDEST SWAP1 POP DUP1 DUP4 DUP3 MSTORE PUSH1 0x20 DUP3 ADD SWAP1 POP PUSH1 0x20 DUP5 MUL DUP4 ADD DUP6 DUP2 GT ISZERO PUSH2 0x243 JUMPI PUSH2 0x242 PUSH2 0x1D7 JUMP JUMPDEST JUMPDEST DUP4 JUMPDEST DUP2 DUP2 LT ISZERO PUSH2 0x26C JUMPI DUP1 PUSH2 0x258 DUP9 DUP3 PUSH2 0x1FA JUMP JUMPDEST DUP5 MSTORE PUSH1 0x20 DUP5 ADD SWAP4 POP POP PUSH1 0x20 DUP2 ADD SWAP1 POP PUSH2 0x245 JUMP JUMPDEST POP POP POP SWAP4 SWAP3 POP POP POP JUMP JUMPDEST PUSH0 DUP3 PUSH1 0x1F DUP4 ADD SLT PUSH2 0x28A JUMPI PUSH2 0x289 PUSH2 0x120 JUMP JUMPDEST JUMPDEST DUP2 CALLDATALOAD PUSH2 0x29A DUP5 DUP3 PUSH1 0x20 DUP7 ADD PUSH2 0x20E JUMP JUMPDEST SWAP2 POP POP SWAP3 SWAP2 POP POP JUMP JUMPDEST PUSH0 PUSH0 PUSH1 0x40 DUP4 DUP6 SUB SLT ISZERO PUSH2 0x2B9 JUMPI PUSH2 0x2B8 PUSH2 0x118 JUMP JUMPDEST JUMPDEST PUSH0 DUP4 ADD CALLDATALOAD PUSH8 0xFFFFFFFFFFFFFFFF DUP2 GT ISZERO PUSH2 0x2D6 JUMPI PUSH2 0x2D5 PUSH2 0x11C JUMP JUMPDEST JUMPDEST PUSH2 0x2E2 DUP6 DUP3 DUP7 ADD PUSH2 0x276 JUMP JUMPDEST SWAP3 POP POP PUSH1 0x20 PUSH2 0x2F3 DUP6 DUP3 DUP7 ADD PUSH2 0x1FA JUMP JUMPDEST SWAP2 POP POP SWAP3 POP SWAP3 SWAP1 POP JUMP JUMPDEST PUSH2 0x306 DUP2 PUSH2 0x1DB JUMP JUMPDEST DUP3 MSTORE POP POP JUMP JUMPDEST PUSH0 PUSH1 0x20 DUP3 ADD SWAP1 POP PUSH2 0x31F PUSH0 DUP4 ADD DUP5 PUSH2 0x2FD JUMP JUMPDEST SWAP3 SWAP2 POP POP JUMP JUMPDEST PUSH32 0x4E487B7100000000000000000000000000000000000000000000000000000000 PUSH0 MSTORE PUSH1 0x11 PUSH1 0x4 MSTORE PUSH1 0x24 PUSH0 REVERT JUMPDEST PUSH0 PUSH2 0x35C DUP3 PUSH2 0x1DB JUMP JUMPDEST SWAP2 POP PUSH2 0x367 DUP4 PUSH2 0x1DB JUMP JUMPDEST SWAP3 POP DUP3 DUP3 SUB SWAP1 POP DUP2 DUP2 GT ISZERO PUSH2 0x37F JUMPI PUSH2 0x37E PUSH2 0x325 JUMP JUMPDEST JUMPDEST SWAP3 SWAP2 POP POP JUMP JUMPDEST PUSH32 0x4E487B7100000000000000000000000000000000000000000000000000000000 PUSH0 MSTORE PUSH1 0x12 PUSH1 0x4 MSTORE PUSH1 0x24 PUSH0 REVERT JUMPDEST PUSH0 PUSH2 0x3BC DUP3 PUSH2 0x1DB JUMP JUMPDEST SWAP2 POP PUSH2 0x3C7 DUP4 PUSH2 0x1DB JUMP JUMPDEST SWAP3 POP DUP3 PUSH2 0x3D7 JUMPI PUSH2 0x3D6 PUSH2 0x385 JUMP JUMPDEST JUMPDEST DUP3 DUP3 DIV SWAP1 POP SWAP3 SWAP2 POP POP JUMP JUMPDEST PUSH0 PUSH2 0x3EC DUP3 PUSH2 0x1DB JUMP JUMPDEST SWAP2 POP PUSH2 0x3F7 DUP4 PUSH2 0x1DB JUMP JUMPDEST SWAP3 POP DUP3 DUP3 ADD SWAP1 POP DUP1 DUP3 GT ISZERO PUSH2 0x40F JUMPI PUSH2 0x40E PUSH2 0x325 JUMP JUMPDEST JUMPDEST SWAP3 SWAP2 POP POP JUMP JUMPDEST PUSH32 0x4E487B7100000000000000000000000000000000000000000000000000000000 PUSH0 MSTORE PUSH1 0x32 PUSH1 0x4 MSTORE PUSH1 0x24 PUSH0 REVERT INVALID LOG2 PUSH5 0x6970667358 0x22 SLT KECCAK256 0x22 0xC5 PUSH12 0x955A85EFEAB6F1FD09BBFC2 TIMESTAMP PUSH7 0x74ABBC8651F081 RJUMP 0x34C2 SLOAD BLOBHASH PUSH4 0xB2836473 PUSH16 0x6C634300081E00330000000000000000 "
				},
				"gasEstimates": {
					"creation": {
						"codeDepositCost": "228800",
						"executionCost": "267",
						"totalCost": "229067"
					},
					"external": {
						"binarySearch(uint256[],uint256)": "infinite"
					}
				},
				"methodIdentifiers": {
					"binarySearch(uint256[],uint256)": "b12601da"
				}
			},
			"storageLayout": {
				"storage": [],
				"types": null
			},
			"userdoc": {
				"kind": "user",
				"methods": {},
				"version": 1
			}
		}
	}
}